:02000004085F93
:10A0000000A05F08FCFF5F080000060020000501BB
:08A010000401E015000000004E
:10A018001348144908B5884205D0134A824202D031
:10A02800124B121A98471248124A0021124B121A60
:10A03800984712481249884205D0124A824202D0F3
:10A048000A4B121A984710481049884205D0104AFE
:10A05800824202D0054B121A9847014808BD00BF3A
:10A0680058A4071068E85F08D0A407102D0D111038
:10A07800E0AC0710F8AF0710A10E111030B83F027E
:10A08800A8A05F0838B83F0238B83F02B0A05F0800
:0CA09800F0FF3F0219A05F08000000006C
:08A0A8009CA05F0880F93F0253
:10A0B00010F8012B11F8013B012A28BF9A42F7D072
:10A0C000D01A7047034613F8012B002AFBD1181A47
:10A0D0000138704770B502F0FFFE0025054E064CB2
:10A0E000A41BA408AC4200D170BD56F8043B9847AD
:10A0F0000135F7E7CCFF3F02F0FF3F0200F0ACBCB8
:10A1000008B500F01FFDBDE8084002F09DBE01F05B
:10A110007FBC01F07DBC01F089BC01F087BC000070
:10A120000C2008B5024A034901F022FBFEE700BFFC
:10A1300025CB3F0290F93F020078B0FA80F0400949
:10A1400070470123037070470C21054A92F83D3097
:10A150004B43D118D35C0BB9486870470020704757
:10A16000E0AD071038B50C4D0A4695F83D4028B1D2
:10A170000C2303FB0453596803F08AFE0C230122CD
:10A1800063431444E4B2042CEA540ABF002385F864
:10A190003D4085F83D3038BDE0AD0710094A92F8E2
:10A1A0003E1069B90C2092F83C3058430133DBB2C1
:10A1B000042B115402D082F83C30704782F83C10D6
:10A1C000704700BFE0AD07100C21084B93F83C200E
:10A1D0004A4399189A5C22B10022486883F83E20CD
:10A1E00070470122586B83F83E207047E0AD07109E
:10A1F000064B93F83E200AB1986B70470C2193F8F8
:10A200003C2001FB02339868704700BFE0AD0710A7
:10A2100037B5214B04465B69D8031AD5636A228D92
:10A22000D9064FEA820208D023F01F01013B1344F4
:10A2300023F01F0320335A1A0B46BFF34F8F1648E3
:10A240001344002AA3EB020121DCBFF34F8FBFF3BD
:10A250006F8F6178114B20789847FFF79FFFFFF7CA
:10A26000B3FF0190FFF7C4FF0546019A617820789B
:10A270000B4B984761782078AA080A4B984701222F
:10A2800061782078084B03B0BDE830401847C0F82B
:10A290005C12203AD5E700BF00ED00E0A5BD10102C
:10A2A000B9C2101009C3101091BF1010B0F5FA5FB9
:10A2B000F7B51CD0B0F5FA4F14BF05250325374B71
:10A2C0000120B1FA81F498474FF04141012208463C
:10A2D000334FB847334901220846B847EB1E64099B
:10A2E000042B07D8DFE803F00506560658000725BB
:10A2F000E5E70C26304603F017FC022322462846E9
:10A30000002100F09FF8284D00212120A8470021BE
:10A310002220A847254D0C212120A8470C212220CE
:10A32000A847234B234A01255A6380229A630022BF
:10A330004FF4007020499A8783F83E200132042AA6
:10A34000C3E901101D7001F5007103F10C03F5D193
:10A3500000261A4D1A4B28469847294619481A4B89
:10A36000AC602E60984701211648184B9847012190
:10A37000174B14489847FFF727FF0446FFF738FFAD
:10A38000144ACDE9004011463046134B134CA04708
:10A3900003B0F0BD1826ADE73026ABE7C9F23F02A7
:10A3A000390011100000084099CF1010B9CF1010DB
:10A3B000E0AD071060AD0710E0A4071034AD071042
:10A3C0007DF33F0200080140D1F33F0271F43F02E8
:10A3D000ADF33F02E0AC071099B93F0295F43F029C
:10A3E00008B5FFF7B1FE00B908BD00210846FFF728
:10A3F000B9FEF6E7FFF7A8BEFFF7B4BE0904064AA8
:10A4000041EA002040F00100044B10601168C907C8
:10A4100001D5013BFAD1704700000140A086010040
:10A42000064A000240F01000106005481368D90683
:10A4300002D50138FAD17047180C7047000001406E
:10A44000A08601002DE9F34717464FF090421D46C4
:10A450008846D2F84433116923F0FE0349014CBF0A
:10A4600043F0540343F0D00315F010040646C2F83D
:10A47000443340EA001959D04FF421611220FFF70C
:10A48000BDFF4FF421611520FFF7B8FF1B20FFF738
:10A49000C7FF40F0070081B21B20FFF7AFFF1B2072
:10A4A000FFF7BEFF40F0100081B21B20FFF7A6FFB0
:10A4B00041F6BF711820FFF7A1FFFB20FFF7B0FFA7
:10A4C00040F0020081B2FB20FFF798FF1120FFF758
:10A4D000A7FF20F4005141F4805189B21120FFF709
:10A4E0008DFF1420FFF79CFF20F4005141F48051B0
:10A4F00089B21420FFF782FF1820FFF791FF6FEA5F
:10A50000C0406FEAD04081B21820FFF777FF1721D3
:10A510001B20FFF773FF49461720FFF76FFF8021CD
:10A52000102002B0BDE8F047FFF768BF0320FFF737
:10A5300077FF20F4406141F40061032089B2FFF706
:10A540005DFF15F0080A4AD01820FFF769FF40F0B8
:10A550003F0081B21820FFF751FF2046FFF760FF50
:10A5600000F4406040F4467141F003012046FFF7DB
:10A5700045FF40F2FC710120FFF740FF0220FFF78A
:10A580004FFF00F4E05040F4014141F0EA010220A5
:10A59000FFF734FF10210C20FFF730FF49F6FC7164
:10A5A0000120FFF72BFF0220FFF73AFF00F4E050F5
:10A5B00040F4014141F0FA010220FFF71FFF20465D
:10A5C000FFF72EFF00F4406040F4667141F0030194
:10A5D0002046FFF713FF18210C20FFF70FFF15F09F
:10A5E00005042FD00220FFF71BFF20F4C04141F4E7
:10A5F0000141022089B2FFF701FF052003F0F4FDBD
:10A60000EA077FD50C20FFF70BFF40F0100081B266
:10A610000C20FFF7F3FE0220FFF702FF40F4C060BA
:10A6200081B20220FFF7EAFE642003F0DDFD032083
:10A63000FFF7F6FE20F0F00141F4687189B20320C3
:10A64000FFF7DCFE15F00D0F02D0C82003F0BCFDB3
:10A65000BAF1000F20D00020FFF7E2FE00F44060C6
:10A6600040F4067141F003010020FFF7C7FE40F2FD
:10A67000FC410120FFF7C2FE0220FFF7D1FE00F4EB
:10A68000E05040F4014141F0EA010220FFF7B6FE3C
:10A6900010210C20FFF7B2FE6CB10020FFF7C0FEC6
:10A6A00040F4606040F0010081B20020FFF7A6FE98
:10A6B000322003F099FD41F6BF711820FFF79EFE8E
:10A6C00046F220311120FFF799FE46F22031142086
:10A6D000FFF794FE64B31220FFF7A2FE0446152094
:10A6E000FFF79EFE24F4C76420F4C76AA4B21FFAE1
:10A6F0008AFA092E0ED8DFE806F0BBC00DB60D0DA4
:10A700000D0DBBC00320FFF78BFE00F47F4040F42B
:10A71000547194E744F004014AF0040A1220FFF750
:10A720006DFE15205146FFF769FE322003F04CFD07
:10A7300017211B20FFF762FE49461720FFF75EFE38
:10A74000FB20FFF76DFE20F0060141F0080189B201
:10A75000FB20FFF753FEFD20FFF762FE20F006010D
:10A7600041F0080189B2FD20FFF748FE2720FFF7DE
:10A7700057FE20F4807081B20FB941F48071272018
:10A78000FFF73CFEFA20FFF74BFE20F40070400577
:10A79000400D40F48051FA200191FFF72FFEFC207C
:10A7A0000199FFF72BFEAB0740D51120FFF738FECC
:10A7B000344C204040F4A04141F0190189B21120ED
:10A7C000FFF71CFE1220FFF72BFE40F0040081B2C1
:10A7D0001220FFF713FE1420FFF722FE204040F462
:10A7E000A04141F0180189B21420FFF707FE15209F
:10A7F000FFF716FE40F0040081B21520FFF7FEFDC2
:10A800001720FFF70DFE20F4E06141F4807189B25A
:10A810001720FFF7F3FD1820FFF702FE6FEAC04094
:10A820006FEAD04081B21820FFF7E8FD26F0080655
:10A83000012E13D11720FFF7F3FD20F4F04141F46E
:10A84000006189B21720FFF7D9FD1B20FFF7E8FD53
:10A8500020F00C0081B21B20FFF7D0FD47EA081161
:10A8600041F080015CE644F00C014AF00C0A55E727
:10A8700044F014014AF0140A50E744F01C014AF075
:10A880001C0A4BE7FEDFFFFF7047012A08BF01608B
:10A890000020704710B50446094B036001F05EFCD0
:10A8A000214601F095FE02F027FC02F015FC20463F
:10A8B000044B40F8043B01F027FD204610BD00BFCB
:10A8C00054FA3F023CFA3F0210B50446FFF7E2FF9C
:10A8D00020462421FFF721FC204610BD0EB403B50D
:10A8E00003AB53F8042B0121019301F07EFA02B06F
:10A8F0005DF804EB03B0704710B58368044613B1EC
:10A90000032201469847204610BD08B501210620C4
:10A9100002F0F1FFC82002F05FFABDE80840002114
:10A92000062002F0E8BF0000002210B54C0821F01C
:10A9300001010144884207D030F9023B002BB8BF27
:10A940005B4212FA83F2F5E7B2FBF4F402F0D4FBB7
:10A9500022460A49FFF7C2FF0121072002F0CBFF80
:10A96000322002F039FA0021072002F0C4FF322C15
:10A9700003D9BDE81040FFF7C8BF10BDA5F93F02DD
:10A98000012230B51F4B8BB01A7000F015FD1E4B25
:10A9900018602C20FFF7BBFB044608B100F09EFCBA
:10A9A0001A4B6D4605931A4B02A904930023089392
:10A9B00006AB18460222FFF768FF93E8030085E81C
:10A9C000030004F1140292E8030083E8030095E811
:10A9D000030082E80300E26918460892049AE261E3
:10A9E000226A0992059A2262FFF786FF02A8FFF702
:10A9F00083FF00F0CDFA21460BB0BDE8304000F0F7
:10AA000029BB00BF2CAE071054AE07109DC13F02FA
:10AA100013C03F0208B50B4611681868FFF784FFA2
:10AA200000F0CAFC094B1B68C01A44F61F63984229
:10AA300008D902F061FB064901F0AFF90022054B8D
:10AA40001A7008BDBDE80840FFF79ABF54AE071062
:10AA5000B6F93F022CAE071010B50121072002F015
:10AA600039FF0121062002F035FF0021072002F006
:10AA700042FF0021062002F03EFF02F03DFB4FF4B2
:10AA8000165102F025FB02F037FB02F02BFB18B940
:10AA90000A2002F0A1F9F6E702F02EFB254901F0A9
:10AAA0007CF900F075FA01210422C0E904124FF488
:10AAB0007A520368C260DB6898470446A0B102F08E
:10AAC0001BFB22461C49FFF709FF0121072002F06A
:10AAD00012FF642002F080F90021072002F00BFF32
:10AAE000642002F079F9F0E700F052FA03685B693C
:10AAF00098470446A0B102F0FFFA22460F49FFF73B
:10AB0000EDFE0121072002F0F6FE642002F064F958
:10AB10000021072002F0EFFE642002F05DF9F0E76B
:10AB200002F0EAFA064901F038F9BDE81040FFF7F3
:10AB300027BF00BFCAF93F02DEF93F02F6F93F0224
:10AB40000FFA3F0208B50B4B1B788BB100F034FCB9
:10AB50004FF4FA73B0FBF3F0C30709D401210720C7
:10AB600002F0C9FE00F014FABDE8084000F062BA35
:10AB70000021F4E72CAE071070B51426D0E900537D
:10AB8000044606FB0356AE4204D0284601F00AF8FC
:10AB90001435F8E7206800F049FF204670BD884270
:10ABA000F8B504460D46164616D9904215D2A2F1C4
:10ABB0001406751AA1F114072C44B7421CD02CB10D
:10ABC0003146204601F057F8337C2374304600F0BC
:10ABD000E9FF143E143CF0E70ED0B5420CD02CB186
:10ABE0002946204601F047F82B7C2374284600F0C4
:10ABF000D9FF14351434F0E7F8BD00232DE9F041F6
:10AC0000C0E9003383604F6804469F420E4624DD4E
:10AC10004FF0140808FB07F000F0FAFE0546E0B11B
:10AC2000D4E9001208FB0212FFF7B9FF206800F018
:10AC3000FDFE2560A760D6E9007308FB0378B845E0
:10AC400009D03946284601F030F83B7C143505F828
:10AC5000043C1437F3E7736863602046BDE8F08175
:10AC600070B500248CB00021012000F0D5FD214BEF
:10AC7000214AC3E900449A60022000F0B1FDCDE909
:10AC80000044029402F038FA1C4C054626466946F8
:10AC900003A8FFF7B2FF03A906A8FFF7AEFF184B02
:10ACA00006A946F8043B09A8FFF7A7FF09AA1E2139
:10ACB000304601F06FFD09A8FFF75EFF06A8FFF719
:10ACC0005BFF104B2562236003A8FFF755FF0E4B77
:10ACD000236002F011FA4FF4165102F0F9F901F075
:10ACE0003DFA214601F02EFC6846FFF745FF0CB007
:10ACF00070BD00BF20AE07100000FFFF30AE071090
:10AD00003CFA3F0254FC3F0254FA3F0201207047D4
:10AD10006FF077007047704700230377184670473D
:10AD200010B504462021FFF7F8F9204610BD08B5FC
:10AD3000C368B3F57A5F08D0B3F5FA4F05D0B3F521
:10AD4000FA5F1CBF4FF47A53C360017AC068FFF703
:10AD5000ADFA002008BD10B50446FFF741FB012302
:10AD60000020237710BD08B5007F20B1FFF742FB1C
:10AD7000003818BF012008BD37B5057F04461DB94E
:10AD80000025284603B030BD0191FFF733FB014693
:10AD90000028F5D02046019A00F06EF900210846FF
:10ADA000FFF72AFBEDE7F7B5077F06460D461FB90B
:10ADB0000027384603B0F0BDFFF71CFB044600280F
:10ADC000F6D002460146304600F056F94FF4807343
:10ADD0000193AB6800940BB903F048F86946284624
:10ADE000EB6801AA984700210846FFF705FBE0E75A
:10ADF0004FF0010C0421064AC0E904C14FF48071F0
:10AE0000426000228161034902720160027770474B
:10AE10000B000C006CFA3F0270476FF07700704730
:10AE2000436833B1D0E90230834234BF00200120AF
:10AE3000704718467047FFF77ABFFFF78CBFFFF7E0
:10AE40006BBFFFF790BFFFF797BF000010B5044638
:10AE5000024B0360FFF75FFF204610BD9CFA3F02E4
:10AE600010B50446FFF7F2FF20462021FFF755F901
:10AE7000204610BD10B50446024B0360FFF7E6FF05
:10AE8000204610BDCCFA3F0210B50446FFF7F2FF92
:10AE900020462421FFF741F9204610BD012A02D1A6
:10AEA000016000207047022A04BF0B680360F8E7C6
:10AEB00073B50446036815689A6A09685543D3E96F
:10AEC00002022E1896425B6888BF151A2A4618445B
:10AED00002F0DEFF226893682B4493602068D0E97B
:10AEE00002239A4212D3C36983B103685B6998470E
:10AEF0002068C3684268CDE90023C3690BB902F03A
:10AF0000B5FF036A694601AA1430984702B070BDC4
:10AF100010B5064B04460360406808B1FFF7FBF824
:10AF200004F11400FFF7E8FC204610BDFCFA3F02D4
:10AF300010B50446FFF7ECFF20462C21FFF7EDF893
:10AF4000204610BD002330B585B002938B680546BE
:10AF50000C4633B1022268469847E3680393A3681E
:10AF6000029369462846FFF71EFF04466846FFF72E
:10AF7000C3FC204605B030BD10B50446FFF738FFCE
:10AF8000024B204623600023236210BDCCFA3F020F
:10AF900038B5064D2B683BB92420FFF7B8F80446B6
:10AFA00008B1FFF7E9FF2C60286838BD58AE0710DC
:10AFB0001FB543680446BBB1D0E902239A4213D2BD
:10AFC000FFF7E6FF0368DB69984768B1FFF7E0FF2A
:10AFD000064A03680392064A69465B6A0094029235
:10AFE00098476846FFF788FC04B010BD39C63F0299
:10AFF00025C63F0238B50446FFF7CAFF0369656AF4
:10B00000002B0CBF01230223A560A362FFF7C0FF42
:10B01000A26A2369C06853434FF47A7290FBF2F03E
:10B0200000FB0350E060FFF774F86060003818BF61
:10B03000012038BD006A10B10368DB68184770470B
:10B0400010B50446006A10B103685B689847002396
:10B05000236210BD70B50C460546FFF7F1FF2C6268
:10B0600023682046BDE870409B6818470369002BA1
:10B070000CBF012002207047F8B5074603688669B7
:10B080009B680C46154601EB460698473B69C3B9D9
:10B0900001226FF07F017B6940009A4012B2B442F6
:10B0A00036D2B4F90030044493FBF2F31BB27F2B89
:10B0B000A8BF7F238B42B8BF0B46803B05F8013BFE
:10B0C000EDE7012B17D17A6948F264071149C2F103
:10B0D00008024000B4421BD2B4F90030044493404B
:10B0E0008B4206DBB3F5004FC8BF3B4625F8023B59
:10B0F000F0E7084BFAE7AC4201D1012808D0400044
:10B10000B44205D2B4F90030044425F8023BF7E715
:10B11000F8BD00BF0180FFFF044A02600022C0E9C1
:10B120000122C0E90322C26142627047FCFA3F0279
:10B13000704710B504461021FEF7EFFF204610BD02
:10B1400010B50446024B0360FFF7E2FE204610BD37
:10B1500064FB3F0210B50446FFF7F2FF20462C21A6
:10B16000FEF7DBFF204610BD0EB44FF0200C00238D
:10B1700000B58CB00DAA52F8041BCDE904C3CDE98B
:10B1800000120392016804AA1E2000F0FFFA0CB01E
:10B190005DF804EB03B07047006800BA704743687D
:10B1A00010B5140E5C544368140C0B445C70436877
:10B1B000140A0B449C7043681944CA7010BD000007
:10B1C0002DE9F8431546826804462B2A0E46984618
:10B1D000DDF8209006D825482549FFF7C5FF002057
:10B1E000BDE8F8832348FFF7D7FF00210246204639
:10B1F000FFF7D5FF636809F124025A601E48FFF784
:10B20000CBFF082102462046FFF7C9FF1B48FFF786
:10B21000C3FF0C2102462046FFF7C1FF1022012781
:10B22000636817481A61636824219F826368DE821D
:10B2300063689D6105FB08F57543636816FB08F6B6
:10B24000ED08DD616368F6101E846368A3F8228050
:10B25000FFF7A2FF02462046FFF7A1FF63683846CA
:10B26000C3F828902C23E360BAE700BF84AE071030
:10B2700014FB3F0235FB3F023AFB3F023FFB3F021C
:10B2800044FB3F0210B5C36888B0069300231249FF
:10B2900042680446CDE904120793FFF779FE037A6A
:10B2A000002B14BF022101210391FFF771FEC26838
:10B2B0000292FFF76DFEFFF7D9FEDDE90221E36898
:10B2C000646AC0001B1B009300F0F80304A8FFF79A
:10B2D00077FF08B010BD00BF54FB3F0210B5044615
:10B2E000FFF71AFF024B204623602C23636210BD38
:10B2F00064FB3F0209B504480068044B03441B6823
:10B300009B68029309BD000058A40710500000007C
:10B3100009B504480068044B03441B68DB680293CA
:10B3200009BD000058A407105000000009B50448EA
:10B330000068044B03441B689B68029309BD00002E
:10B3400058A407101400000009B504480068044B15
:10B3500003441B68DB68029309BD000058A4071072
:10B360001400000009B504480068044B03441B683E
:10B370001B69029309BD000058A4071014000000C7
:10B3800009B504480068044B03441B685B680293DA
:10B3900009BD000058A407100000000009B50448CA
:10B3A0000068044B03441B68DB68029309BD00007E
:10B3B00058A407100000000009B504480068044BB9
:10B3C00003441B685B69029309BD000058A4071081
:10B3D0000000000009B504480068044B03441B68E2
:10B3E0005B6C029309BD000058A4071030000000F8
:10B3F00009B504480068044B03441B689B6C029326
:10B4000009BD000058A407103000000009B5044829
:10B410000068044B03441B68DB6C029309BD000009
:10B4200058A407103000000009B504480068044B18
:10B4300003441B685B6D029309BD000058A407100C
:10B440003000000009B504480068044B03441B6841
:10B450005B69029309BD000058A407104C0000006E
:10B4600009B504480068044B03441B689B680293B9
:10B4700009BD000058A407102400000009B50448C5
:10B480000068044B03441B68DB68029309BD00009D
:10B4900058A407102400000009B504480068044BB4
:10B4A00003441B681B69029309BD000058A40710E0
:10B4B0002400000009B504480068044B03441B68DD
:10B4C0005B69029309BD000058A407102400000026
:10B4D00009B504480068044B03441B689B69029348
:10B4E00009BD000058A407102400000009B5044855
:10B4F0000068044B03441B68DB69029309BD00002C
:10B5000058A407102400000009B504480068044B43
:10B5100003441B681B6A029309BD000058A407106E
:10B520002400000009B504480068044B03441B686C
:10B530009B6A029309BD000058A407102400000074
:10B5400009B504480068044B03441B68DB6A029396
:10B5500009BD000058A407102400000009B50448E4
:10B560000068044B03441B681B6C029309BD000078
:10B5700058A407102400000009B504480068044BD3
:10B5800003441B681B6A029309BD000058A40710FE
:10B590001000000009B504480068044B03441B6810
:10B5A0005B6A029309BD000058A407101000000058
:10B5B00009B504480068044B03441B689B6A029366
:10B5C00009BD000058A407101000000009B5044888
:10B5D0000068044B03441B68DB6A029309BD00004A
:10B5E00058A407101000000009B504480068044B77
:10B5F00003441B681B6B029309BD000058A407108D
:10B600001000000009B504480068044B03441B689F
:10B610005B6B029309BD000058A4071010000000E6
:10B6200009B504480068044B03441B681B6C029373
:10B6300009BD000058A407101000000009B5044817
:10B640000068044B03441B68DB69029309BD0000DA
:10B6500058A407101800000009B504480068044BFE
:10B6600003441B681B6A029309BD000058A407101D
:10B670001800000009B504480068044B03441B6827
:10B680001B68029309BD000058A407103400000095
:10B6900009B504480068044B03441B685B680293C7
:10B6A00009BD000058A407103400000009B5044883
:10B6B0000068044B03441B689B68029309BD0000AB
:10B6C00058A407103400000009B504480068044B72
:10B6D00003441B681B69029309BD000058A40710AE
:10B6E0003400000009B504480068044B03441B689B
:10B6F0005B69029309BD000058A4071034000000E4
:10B7000009B504480068044B03441B689B69029315
:10B7100009BD000058A407103400000009B5044812
:10B720000068044B03441B68DB69029309BD0000F9
:10B7300058A407103400000009B504480068044B01
:10B7400003441B681B6A029309BD000058A407103C
:10B750003400000009B504480068044B03441B682A
:10B760005B6A029309BD000058A407103400000072
:10B7700009B504480068044B03441B685B6B0293E3
:10B7800009BD000058A407104800000009B504488E
:10B790000068044B03441B685B6D029309BD000005
:10B7A00058A407104800000009B504480068044B7D
:10B7B00003441B68DB6E029309BD000058A4071008
:10B7C0004800000009B504480068044B03441B68A6
:10B7D0001B6F029309BD000058A407104800000029
:10B7E00009B504480068044B03441B685B68029376
:10B7F00009BD000058A407100800000009B504485E
:10B800000068044B03441B685B69029309BD000098
:10B8100058A407100800000009B504480068044B4C
:10B8200003441B68DB6A029309BD000058A407109B
:10B830000800000009B504480068044B03441B6875
:10B84000D3F88830029309BD58A4071008000000FF
:10B8500009B504480068044B03441B68D3F89430CE
:10B86000029309BD58A407100800000009B5044858
:10B870000068044B03441B685B68029309BD000029
:10B8800058A407102800000009B504480068044BBC
:10B8900003441B689B68029309BD000058A407106D
:10B8A0002800000009B504480068044B03441B68E5
:10B8B000DB68029309BD000058A4071028000000AF
:10B8C00009B504480068044B03441B681B690293D4
:10B8D00009BD000058A407102800000009B504485D
:10B8E0000068044B03441B685B69029309BD0000B8
:10B8F00058A407102800000009B504480068044B4C
:10B9000003441B689B69029309BD000058A40710FB
:10B910002800000009B504480068044B03441B6874
:10B92000DB69029309BD000058A40710280000003D
:10B9300009B504480068044B03441B681B6A029362
:10B9400009BD000058A407102800000009B50448EC
:10B950000068044B03441B681B6B029309BD000085
:10B9600058A407102800000009B504480068044BDB
:10B9700003441B685B6B029309BD000058A40710C9
:10B980002800000009B504480068044B03441B6804
:10B990001B6C029309BD000058A40710280000008A
:10B9A00009B504480068044B03441B685B6C0293B0
:10B9B00009BD000058A407102800000009B504487C
:10B9C0000068044B03441B685B6D029309BD0000D3
:10B9D00058A407102800000009B504480068044B6B
:10B9E00003441B689B6D029309BD000058A4071017
:10B9F0002800000009B504480068044B03441B6894
:10BA0000DB6B029309BD000058A407102C00000056
:10BA100009B504480068044B03441B681B68029383
:10BA200009BD000058A407100400000009B504482F
:10BA30000068044B03441B685B68029309BD000067
:10BA400058A407100400000009B504480068044B1E
:10BA500003441B689B68029309BD000058A40710AB
:10BA60000400000009B504480068044B03441B6847
:10BA70005B6A029309BD000058A40710040000008F
:10BA800009B504480068044B03441B68DB6A029351
:10BA900009BD000058A407100400000009B50448BF
:10BAA0000068044B03441B68DB6B029309BD000074
:10BAB00058A407100400000009B504480068044BAE
:10BAC00003441B681B6C029309BD000058A40710B7
:10BAD0000400000009B504480068044B03441B68D7
:10BAE0005B6C029309BD000058A40710040000001D
:10BAF000002240681146FFF71BBF00224068114634
:10BB0000FFF732BF00224068FFF720BF00224068E5
:10BB100081F00101FFF7FEBE002340681A46194676
:10BB2000FFF7EABE002340681A461946FFF7D6BE63
:10BB3000002240681146FFF7C3BE0022406811464C
:10BB4000FFF7A2BE002202214068FFF7ABBE002330
:10BB500040681A46FFF78ABE0322024B5A60024A27
:10BB60001A6070475CAE071084FB3F0210B50446B4
:10BB700008462170FFF762FD00232046636010BD78
:10BB800002220020044B1A60044B054AC3E900005E
:10BB90009A60FFF725BE00BF70AE071064AE0710B5
:10BBA0000000FFFF10B504460068FFF73FFF204686
:10BBB00010BD10B50446006808B1FFF737FF002339
:10BBC000C4E90133236010BD38B504460D46006852
:10BBD0000131FFF739FF10B1C4E90005012038BD7C
:10BBE00010B50368044623B143688B4201D301209A
:10BBF00010BD2046FFF7E8FF0028F9D0A368002B0E
:10BC0000F5D122681370F2E737B50D46114601925F
:10BC10000446FFF7E5FF019A28B92046FFF7C9FF60
:10BC2000204603B030BD2946A260206802F030F9FA
:10BC300000212268A368D154F2E738B505460068B0
:10BC40000C4670B16A688B689A4208D3096831B1B2
:10BC500002F093F9A368AB600023A36038BDFFF73F
:10BC6000E5FE23682B6063686B60A368AB6000230C
:10BC7000C4E90033F1E7002310B50446C0E90033FE
:10BC800083600373FFF7D9FF204610BD884210B5CB
:10BC9000044605D00B682BB18A681946FFF7B4FF3C
:10BCA000204610BDFFF785FFFAE7002310B50446D4
:10BCB000C0E9003383600373FFF7E8FF204610BD3F
:10BCC00010B543680446013B436063B903689B6851
:10BCD0009847A368013BA3602BB923682046BDE8C1
:10BCE0001040DB68184710BD70B50446D0E900531A
:10BCF00005EB0316AE4204D02846FFF753FF10357C
:10BD0000F8E72068FFF792FE204670BD10B50446A4
:10BD1000006808B1FFF7D4FF204610BD0023024899
:10BD20000360FFF757BB00BF74AE0710F8B50646B7
:10BD30000D4600248F18BD420CD0336830469B68F6
:10BD400015F8011B9847031E01DB1C44F3E7002C88
:10BD500008BF1C462046F8BD13B50446084659B135
:10BD60000191FEF7AFF90246204623680199DB688E
:10BD700002B0BDE81040184702B010BD03689B68D0
:10BD8000184738B50D210546FFF7F8FF0A2104468C
:10BD90002846FFF7F3FF204438BD38B50546FFF7C6
:10BDA000DBFF04462846FFF7ECFF204438BD0023A4
:10BDB000012A98BF0A2230B58BB08DF8243009AC27
:10BDC0000D46B1FBF2F101FB125303F0FF03092B07
:10BDD00094BF30333733DBB2AA4204F8013DEFD9C8
:10BDE0002146FFF7B9FF0BB030BD2DE9F04186B019
:10BDF00000AF05460E46381D142114463B60FFF780
:10BE000031FE13280ED82846391DFFF7A5FF04463A
:10BE10001EB12846FFF7B5FF044420461837BD463B
:10BE2000BDE8F08100F1080323F00703E846ADEB1D
:10BE3000030D2246411C3B686846FFF713FE694626
:10BE40002846FFF789FF0446C546E1E78068036896
:10BE5000DB6818477047084611B10B685B681847E4
:10BE60007047704770477047704738B504460D46B5
:10BE700000682E2102F077F82368C31A2B6023B1E3
:10BE8000037803B1013023682060184638BD10B52F
:10BE900004460C21FEF741F9204610BD10B50446BA
:10BEA0000421FEF73AF9204610BD10B504460421DE
:10BEB000FEF733F9204610BDFFF7A8BA08B5FEF724
:10BEC000F7F8B0FA80F0400908BD704710B50C468D
:10BED00001F012F9844205D101F00EF9BDE81040DD
:10BEE00001F0FAB801F050FD844205D101F04CFD9B
:10BEF000BDE8104001F07DB92CB123682046BDE8B3
:10BF000010405B68184710BD0B6803604B684360C6
:10BF100013B15A6801325A60704713B50446084697
:10BF20000191FEF7CFF802462046019902B0BDE824
:10BF3000104001F081BC13B5044608460191FEF79C
:10BF4000C1F80246204623680199DB6802B0BDE8CB
:10BF50001040184707B503688DF807100122DB6809
:10BF60000DF10701984703B05DF804FB0A6810B5AE
:10BF700002604A6842600022C0E9022202618C68C5
:10BF80008A608460CC68CA60C4600C690A6104611C
:10BF900010BD00002DE9F74F4FF0140AD0E90084DE
:10BFA000174645460AFB04F40093174BA4105C4364
:10BFB000002C21DD66100AFB06F005EB0009B9F83C
:10BFC00004B03A465F4528BF5A462858019101F00F
:10BFD000DCFF00284FF0010301990BD15F4503D12D
:10BFE000009A13703446E3E7FCD9A61B09F1140547
:10BFF000013EF7E7F9DBF5E7A5EB08050248AD10D0
:10C00000684303B0BDE8F08FCDCCCCCC7FB50369DD
:10C01000057E019103B3F9B1002600F10C040396EB
:10C0200003A901A8FFF721FF0146A8B10DF10B03F9
:10C030002046039A8DF80B60FFF7ACFF9DF80B309C
:10C0400053B12368142404FB0034B4F906300834D7
:10C05000002BA8BFDDB2E3E7284604B070BD0EB4E4
:10C06000F0B58CB000AF07F1440555F8042B044639
:10C070002B46202107F110007A60FD60FFF7F2FCEB
:10C080001F287A681AD900F1080323F007036E46C7
:10C09000ADEB030D411C2B466846FD60FFF7E2FC4B
:10C0A000021E04DD236869462046DB689847B546D2
:10C0B0003037BD46BDE8F04003B070470028F7D0E8
:10C0C00023680246DB68204607F110019847EFE736
:10C0D00010B5084CD4E88F3FDB0709D42046FEF7A3
:10C0E0002BF828B12046FEF72CF8034801F0C1FEDA
:10C0F000024810BD7CAE0710EBD53F025CA40710D0
:10C1000010B5084CD4E88F3FDB0709D42046FEF772
:10C1100013F828B12046FEF714F8034801F0A9FEF1
:10C12000024810BD80AE071053D63F0260A407102E
:10C1300038B500250446C0E90055C0E904558560BE
:10C14000856140F8245FFFF745F9FFF7C1FFE06123
:10C15000FFF7D6FF25732062204638BD10B50A4C84
:10C16000D4E88F3FDB070CD42046FDF7E5FF40B154
:10C170000648FFF7DDFF2046FDF7E3FF044801F026
:10C1800078FE024810BD00BF78AE071088AE0710D9
:10C1900035DE3F020023024A02490348FFF712BB83
:10C1A0001DDC3F02A9DB3F0229DB3F0200231A46C8
:10C1B00019461846FFF706BB37B504468D68684632
:10C1C000FFF7A2FE6A462946204601F055FA01A86B
:10C1D000FFF79CFD204603B030BD37B50446CD685F
:10C1E0006846FFF791FE6A462946204601F020FA8C
:10C1F00001A8FFF78BFD204603B030BD37B50446DC
:10C200000D696846FFF780FE6A462946204601F020
:10C21000B8F901A8FFF77AFD204603B030BD000051
:10C2200070B58AB00D46014604A8FFF7C5FF144E4D
:10C2300004A801F039FAE8B1684604A9FFF7CDFF78
:10C2400031460298FFF73AFE044610B12C1E18BF83
:10C25000012401A8FFF75AFD002CE9D0684604A983
:10C26000FFF7CCFF684601F0C2F9286001A8FFF78C
:10C270004DFDDDE705A8FFF749FD0AB070BD00BF21
:10C28000C0FB3F0237B50C46134920461546FDF763
:10C290000FFF50B900F030FF4FF4165100F018FFB7
:10C2A00003B0BDE8304000F027BF20460B49FDF742
:10C2B000FFFE78B94FF4165301A928460193FFF702
:10C2C000AFFF01F061FB019900F090FF01F05CFB12
:10C2D00003B030BD0020FBE7C5FB3F02CCFB3F02B3
:10C2E00070B51426D0E90053044606FB0356AE424F
:10C2F00005D005F10800FFF7F3FF1435F7E72068D4
:10C30000FFF794FB204670BD10B504460C30FFF7D4
:10C31000E7FF2046FFF7E8FC204610BD10B50446B5
:10C32000034B40F8043BFFF7EFFF204610BD00BF72
:10C330003CFA3F0210B50446FFF7F0FF20462421E7
:10C34000FDF7EBFE204610BD10B50446024B03601E
:10C35000FFF7E4FF204610BD6CFC3F0210B5044619
:10C36000FFF7F2FF20462421FDF7D7FE204610BD3F
:10C370000022C0E90022826010B50C680A600460E7
:10C380004C684A6044608C688A60846010BD10B557
:10C39000044603681868FFF747F8204610BD000000
:10C3A0002DE9F04F87B003931C4B80465B688946AC
:10C3B000C3F3080316466BB9FFF7D0FE044600F13D
:10C3C0002403406A0593FFF777FD237B2BB105A873
:10C3D000FFF7DDFF07B0BDE8F08F01235FFA89F9B1
:10C3E0002373D4E9005305EB830AAA4512D055F80C
:10C3F000047B3146381DFFF709FE8145F5D3039ACA
:10C400003B680092D3F808B04A4633464146384666
:10C41000D847EAE700232373D9E700BF00ED00E027
:10C420002DE9F74F9B461A4B80465B688946C3F35C
:10C43000080316466BB9FFF791FE044600F124038A
:10C44000406A0193FFF738FD237B2BB101A8FFF76A
:10C450009EFF03B0BDE8F08F0123F6B22373D4E949
:10C46000005305EB830A55450ED055F8047B594619
:10C47000381DFFF7CBFD8642F5D33B684A4641465F
:10C480003846DB689847EEE700232373DEE700BFFA
:10C4900000ED00E02DE9F341164B05465B680F46C1
:10C4A000C3F308031BBBFFF759FE044600F1240346
:10C4B000406A0193FFF700FDD4E90063462406EBD0
:10C4C0008308B04509D101A8FFF761FFA542B4BFB9
:10C4D0000020012002B0BDE8F08156F8040B394677
:10C4E0000430FFF793FD8442A8BF0446E9E700202B
:10C4F000F0E700BF00ED00E0F8B5D0E901539D4240
:10C5000004460E460DDB6F1C002F006804DDB900E9
:10C51000FFF79AFA18B9F8BDFFF788FA00202060F3
:10C52000A7602768626807EB85019200A2EB85028D
:10C53000081D01F0BAFC47F825606368012001334B
:10C540006360E8E737B5044600F12403406A0193CD
:10C550000D46FFF7B1FCD4E9003203EB82029342AF
:10C5600019460AD009680433A942F8D101A8FFF797
:10C570000EFF0025284603B030BD29462046FFF7B0
:10C58000BBFF05460028F1D06368012B01D1FFF7FE
:10C5900001FE01A8FFF7FBFEECE70B4670B5044671
:10C5A000D0E9000200EB820282420FD001461D68F2
:10C5B00051F8046BAE4207D1521A01F076FC01200B
:10C5C0006368013B636070BD0846EDE70020FAE751
:10C5D0001FB5044600F12403406A01910393FFF75D
:10C5E0006BFC204601A9FFF7D8FF18B163680BB9AF
:10C5F000FFF7DCFD03A8FFF7CAFE04B010BD182347
:10C6000070B50446D0E9045603FB0656AE4215D079
:10C61000204605F11001FFF7C0FF63680BB9FFF773
:10C62000C5FDE06929690368DB689847696919B144
:10C63000206A0368DB6898471835E7E71826D4E9CD
:10C64000045306FB0356AE4204D02846FFF7AAFA6D
:10C650001835F8E70023636170BD73B50446FFF732
:10C66000A5FD04F12403606A0193FFF725FC204631
:10C67000FFF7C5FF01A8FFF78AFE606A08B1FEF761
:10C68000B7FED4E90453182606FB0356AE4204D085
:10C690002846FFF787FA1835F8E72069FFF7C6F94B
:10C6A0002068FFF7C3F9204602B070BD0148FFF7CC
:10C6B000D4BF00BF88AE07108842F8B504460D46C7
:10C6C000164615D9904214D2A2F11406751AA1F19A
:10C6D00014072C44B7421AD01CB131462046FFF74C
:10C6E00045FC06F10800FFF7FBFD143E143CF1E7A2
:10C6F0000DD0B5420BD01CB129462046FFF736FCC1
:10C7000005F10800FFF7ECFD14351434F1E7F8BD2E
:10C710008842F8B504460D46164614D9904213D205
:10C72000A2F11006751AA1F110072C44B74218D0D7
:10C730001CB131462046FFF79EFA3046FFF732FA29
:10C74000103E103CF2E70CD0B5420AD01CB129468D
:10C750002046FFF790FA2846FFF724FA10351034E8
:10C76000F2E7F8BD70B50E1E054611DD3001FFF78A
:10C770004FF9044658B1D5E9001201EB0212FFF758
:10C78000C7FF2868FFF752F901202C60AE6070BD2A
:10C790000024F6E72DE9F04F90460023462295B09D
:10C7A0000391D8F8041004469942C0E90033C0E967
:10C7B0000233C0E90433CDE9083302760A9323DC5F
:10C7C000D8E90057142303FB0757AF423BD0294653
:10C7D0000BA8FFF750FA0BA90FA8099EFFF74BFA19
:10C7E000DDE9091399421BDA089B099A03EB061647
:10C7F000314603EB021206F11000FFF789FFEEB994
:10C80000099B0133099311E008A8FFF7ABFF00284B
:10C81000D6D108A8FFF768FA204615B0BDE8F08F1A
:10C82000013108A8FFF79EFF0028DDD10FA8FFF710
:10C83000B9F90BA8FFF7B6F91435C6E730460FA9CA
:10C84000FFF719FADCE700264FF01409CDE90B6673
:10C850000D96DDE908239E427CDA3301D358069316
:10C860000BB90136F5E70023079309FB06F30BAD7F
:10C87000029307A906A8FFF7F8FA82460028F0D02D
:10C880004FF0000301468DF817302846079A0DF146
:10C890001703FFF77FFB9DF817700190002F4AD117
:10C8A000BDF81C30CDE91177ADF840304FF6FF737D
:10C8B000CDF83CA0ADF842301397D5E90132934250
:10C8C00017DB03F1010ABAF1000F30DD09FB0AF0B2
:10C8D000FFF79EF8834660B3D5E9001209FB021208
:10C8E000FFF7EAFE2868FFF7A1F8C5F800B0C5F821
:10C8F00008A02B68019A09FB023A6A68514609FBB5
:10C9000002320AF11400FFF7D7FEBAF1000F03D08C
:10C9100050460FA9FFF72AFB6B6801336B6011A823
:10C92000FFF7DEFC3FB10BA8FFF7DAFC71E7BB466F
:10C93000D8E70127F3E7019B2D6809FB0355069B08
:10C940001B782BB9D8F80030029A13441B7CEB807B
:10C9500008358EE72168226062686360A3680992E7
:10C960000A9A0A93E368A2600B9A0B932369E26028
:10C970000C9A0C93636922610D9A0D93039B0891A5
:10C9800062612376CFE70000F0B5044626461746DD
:10C9900087B00D4668461946FEF72FF90B4B6946DE
:10C9A00046F8043B03A8FEF728F9394603AA3046A7
:10C9B000FFF7F0FE03A8FEF7DFF86846FEF7DCF8A5
:10C9C0002046034B2562236007B0F0BD3CFA3F02CE
:10C9D00054FC3F02F0B50F4685B038461C49164658
:10C9E0001D460A9CFDF764FBC0B9A4B1294601A805
:10C9F000FFF7BEFC2420174901F034FA054630B198
:10CA000001AB32462146FFF7BFFF134B2B6001A855
:10CA1000FEF7B2F82C46204605B0F0BD38460F4967
:10CA2000FDF746FB90B9002CF5D0294601A8FFF789
:10CA30009FFC2420074901F015FA05460028E6D09E
:10CA40003246214601ABFFF79FFFE0E70024E2E713
:10CA5000D4FB3F0233FE3F026CFC3F02D8FB3F0297
:10CA6000014B024A1A60704784AE0710E9FB3F028F
:10CA70002DE9F047089DD0F8209004460E46174651
:10CA8000984600F039FB81454DD02B79190704D524
:10CA900020466A695449FFF7E2FAB8F1000F0DD059
:10CAA0005B212046FFF756FA41462046FFF743FA3E
:10CAB000236802222046DB684C4998472B79DA0725
:10CAC00024D5D5F808802F21404601F072FA08B12C
:10CAD00000F1010841462046FFF72DFA2B799B070C
:10CAE00008D53A212046FFF735FA2046EA68404942
:10CAF000FFF7B5FA2A79236812F0040F20464FF0A9
:10CB00000202DB6814BF3B493B4998472B79580721
:10CB10001DD529690B461A4613F8010B60B1202870
:10CB200008D11946F7E7354800F029FC0028ACD0B9
:10CB3000BDE8F0872828EED12368521A2046DB682A
:10CB40009847236804222046DB682D499847002136
:10CB50003846FEF729FE01462046FFF7ECF9236828
:10CB600002222046DB68244998471EB13146204600
:10CB7000FFF7E1F92B7913F0300F2CD0236821490E
:10CB8000DB680222204698472B79D9060AD523680C
:10CB9000072220461C49DB6898472046AA691B49A2
:10CBA000FFF75DFA2B799A0611D5DB0605D52368C8
:10CBB00002222046DB680F49984723682046144923
:10CBC0000A22DB6898472046E969FFF7B4F95D213E
:10CBD0002046FFF7BFF923682046BDE8F047022250
:10CBE000DB680C49184700BFEDFB3F02F4FB3F0236
:10CBF000B3F93F02F7FB3F02FCFB3F02ECAE07102C
:10CC0000FAFB3F02FFFB3F0202FC3F020AFC3F022D
:10CC10000DFC3F0218FC3F022DE9F0410446076A73
:10CC20000D46164600F068FA874207D0206A324661
:10CC300003682946BDE8F041DB681847034800F067
:10CC40009EFB0028F2D0BDE8F08100BFECAE0710DB
:10CC50002DE9F04385B0D0F8209005460F46904668
:10CC60001E460C9C00F048FA814505D1494800F069
:10CC700086FB002840F08A804FF000092B6A464A64
:10CC800001A8019203938DF8089000F036FD494603
:10CC90004046FEF789FD80464049012201A800F088
:10CCA000BBFD4146FFF739F93FB13D49012201A8DB
:10CCB00000F0B2FD3946FFF730F93EB139490122A3
:10CCC00001A800F0A9FD3146FFF727F92379DF0716
:10CCD0000ED5A6682F21304601F06BF900B1461C35
:10CCE0003149012201A800F097FD3146FFF715F9FF
:10CCF00023799E0707D52D49022201A800F08CFD5B
:10CD0000E16800F007FD2379580714D526693346FA
:10CD10001F4613F8012B2AB1202A01D11E46F7E73E
:10CD2000282AF5D10222224901A800F075FD3146DA
:10CD3000BA1B00F081FD2379190707D51D4901228F
:10CD400001A800F069FD616900F0F6FC2379DA06BC
:10CD500008D5042218490DEB020000F05DFDA16921
:10CD600000F0D8FC23799B0607D51449062201A8B8
:10CD700000F052FDE169FFF7D0F801A800F0A7FC30
:10CD8000286A022203680E49DB68984705B0BDE8AF
:10CD9000F08300BFECAE07103CFC3F02CAFB3F0231
:10CDA0001BFC3F02C6FE3F021DFC3F021FFC3F0270
:10CDB00022FC3F0225FC3F0227FC3F022CFC3F02E5
:10CDC00018FC3F02024B1A68024B1A60704700BF02
:10CDD00064A40710B0AE07100021FEF70FBD0000DD
:10CDE0000022014B9A607047B4AE0710014B1860E7
:10CDF000704700BF68A4071008B50F4B43B100F09F
:10CE00007BF903681B699847002801DD00E000BF3B
:10CE10000A4B43B100F0B8FD03681B69984700282E
:10CE200001DD00E000BF064B0BB100F0F3FD054B48
:10CE30000BB100F025FE08BD00000000000000005E
:10CE4000000000000000000008B5FFF7D5FFFEF766
:10CE5000B3FA014B186008BD48AF07100548064AF1
:10CE600008B5121A054901F013F8054B054A1A6076
:10CE700008BD00BF00B4071004B40710E0F05F085D
:10CE800000B407101E1C279A002307B51A466FF03E
:10CE900077010093FEF7DCFC03B05DF804FB0000B3
:10CEA00007B543880A2B08D0502B0BD1094B1B68C0
:10CEB0004BB103B05DF804EB1847FFF7E5FF03B093
:10CEC0005DF804FB00231A466FF077010093FEF72C
:10CED000BFFCF4E7C8AE0710002110B51148FEF7FB
:10CEE000F9FD114B1A68114B9A420CBF0122002226
:10CEF0000F4B1A7001D0FFF7B1FFFEF741FA04465D
:10CF000000F0F6FF0B4B13B1204600E000BF0021FC
:10CF10000848FEF76FFDBDE8104000210648FEF707
:10CF200089BC00BF75E53F0200B407101E1C279A9C
:10CF3000C4AE07100000000029E63F02704710B59C
:10CF400004461821FDF7E9F8204610BDF0B5037D31
:10CF50000E46062B4FF000048DB000F1040712D0EE
:10CF600000F1080515F8011D0A223046FEF71FFFE3
:10CF7000AF42044419D0002CF4D02E213046FEF7E5
:10CF8000FDFE0444EEE72F236A4639460A208DF859
:10CF90000040FEF757FA6846FDF794F833680246FA
:10CFA00069463046DB689847044620460DB0F0BD20
:10CFB00010B50446044B1122002140F8043B00F058
:10CFC0008EFF204610BD00BFD0FC3F020346074A3B
:10CFD00010B543F8042B01F1100251F8044B9142B3
:10CFE00043F8044BF9D10A781A7010BDD0FC3F0207
:10CFF00010B59DF8084044EA032343EA02420423A3
:10D0000042EA01614160037510BD000007B5064B9F
:10D010000360CB7800938B784A780978FFF7E8FFB4
:10D0200003B05DF804FB00BFD0FC3F0241747047C1
:10D030007047704708B50021007CFEF761FB40EAAD
:10D04000E07008BD08B50121007CFEF759FB40EAFD
:10D05000E07008BD08B5007CFEF744FB20EAE070F4
:10D0600008BD08B5007CFEF72FFB20EAE07008BD84
:10D0700013B50446007C0191FEF734FB00280199AA
:10D0800001DC607C20B1207CFEF748FB20EAE070E8
:10D0900002B010BD007CFEF74FBB10B50446142152
:10D0A000FDF73BF8204610BD10B54FF47A730446E7
:10D0B00008460021C4E90113044B207423600123B6
:10D0C00011466374FEF7D6FA204610BDE4FC3F0219
:10D0D0000022007CFEF7DCBA007CFEF7E7BA007C99
:10D0E000FEF738BBFFF7FBBF10B504461422002142
:10D0F00000F0F5FE204610BD10B588B003A8FFF77C
:10D10000F3FF0C4CD4E88F1F11F001010FD1204622
:10D110000191FDF711F8019948B103AA0648FFF7FC
:10D12000C3FF2046FDF70DF8044800F0A2FE0248B8
:10D1300008B010BDCCAE0710D0AE0710B9E73F0263
:10D1400070474174704708B5007CFEF7EBF920EAA0
:10D15000E07008BD08B5007CFEF79EF920EAE0709B
:10D1600008BD08B5007CFEF7B3F940EAE07008BDE1
:10D1700008B5007CFEF79EF940EAE07008BD007C2F
:10D18000FEF7B4B937B5457C04462DB1207C03B019
:10D19000BDE83040FEF772B9007C0191FEF7C2F99C
:10D1A00000280199F2DC284603B030BD10B50446D2
:10D1B0001421FCF7B2FF204610BD000010B54FF45B
:10D1C0007A730446084611460022C4E90123044B41
:10D1D0002074236001236374FEF7C0F9204610BD5C
:10D1E00014FD3F020023007CFEF7AAB90022FFF7DE
:10D1F000F9BF007CFEF734B9007CFEF785B97047B3
:10D20000F8B5064615460C468F18BC4206D0336862
:10D2100030469B6814F8011B9847F6E72846F8BD8E
:10D220000022007CFEF7A8B90021007CFEF7B2B90D
:10D230000021007CFEF7BCB90021007CFEF7C6B9D6
:10D240000021007CFEF7D0B910B504461421FCF78C
:10D2500064FF204610BD000038B5044615464FF463
:10D260007A730022C4E90123094B08462174236024
:10D270002946FEF7D5F9BF3008D16B69DB0705D524
:10D280006868FEF7D3FBE868FEF7D0FB204638BDA0
:10D2900044FD3F02002240681146FEF711BB002208
:10D2A00040681146FEF744BB002240681146FEF775
:10D2B0005BBB00224068FEF749BB0022406881F05A
:10D2C0000101FEF727BB002340681A461946FEF706
:10D2D00013BB002340681A461946FEF7FFBA002226
:10D2E00040681146FEF7D0BA002202214068FEF7DE
:10D2F000D9BA002340681A46FEF7B8BA0422024B96
:10D300005A60024A1A607047E4AE07106CFD3F0293
:10D31000002340681A46FEF7A9BA0022022140689D
:10D32000FEF7C0BA002240681146FEF7ADBA0022EF
:10D3300040681146FEF7C4BA002340681A461946F1
:10D34000FEF7CCBA002340681A461946FEF7D4BA55
:10D3500000214068FEF716BB00214068FEF720BBA5
:10D360000022406881F00101FEF7D4BA0022406833
:10D37000FEF7ECBA002240681146FEF7F5BA00222B
:10D3800040681146FEF7D4BA00214068FEF724BB7E
:10D390002DE9F04395B014460D460746FFF708FE09
:10D3A00000211C220DA8009100F099FD4023204689
:10D3B0000C9300216B460CAAFDF7AAFF0446002837
:10D3C0004BD1024601216868FEF77AFA02218046B5
:10D3D00022466868FEF774FA21468146009E002EB8
:10D3E0003BD0002939D17368022B03D00A2B11D00E
:10D3F000F669F4E7B8F1000FFAD0716906A80431B4
:10D400003C1D07ADFFF702FE0FCD0FC42B68414650
:10D410002370EDE7B9F1000FEAD0102201A874697A
:10D4200000F05DFD062301AD8DF8143004F1080312
:10D4300018342A4618685968083303C2A3421546AF
:10D44000F7D101A906A83C1D07ADFFF7BFFD0FCD21
:10D450000FC42B6849462370CAE70098FDF74AFFBE
:10D46000384615B0BDE8F083033802289ABF024B56
:10D4700053F8200001487047A8FD3F02ECAE0710AA
:10D4800008B500224068FEF799FABDE80840FFF7AA
:10D49000EBBF0000024B034A1A6000225A6070473B
:10D4A000ECAE0710BCFD3F02012200F1100313F89F
:10D4B000101C1846012908D153F8041C02EB410244
:10D4C000013A03F11003F2D17047022904BF53F867
:10D4D000041C5218F4E70EB4F0B588B0102100AF68
:10D4E00007F1340555F8042B04462B4678187A606A
:10D4F000FD60FEF7B7FA0F287A681AD900F1080321
:10D5000023F007036E46ADEB030D411C2B46684626
:10D51000FD60FEF7A7FA021E04DD23686946204677
:10D520009B689847B5462037BD46BDE8F04003B03C
:10D5300070470028F7D0236802469B68204607F111
:10D5400010019847EFE738B50B68044603604D6853
:10D5500043689D4208D015B16B6801336B60606809
:10D5600008B1FEF7ADFB656038BD07B503688DF8FF
:10D57000071001229B680DF10701984703B05DF881
:10D5800004FB0B461146002210B50446C0E90022F8
:10D5900083600BB9204610BDFFF7D5FFFAE783681B
:10D5A000EBB11A78032A1AD8DFE802F00417021B3D
:10D5B0000520704702685B685268D05C2D2812D045
:10D5C000A0F13003092B0ED974280ED066280CD098
:10D5D000A0F16E0358425841704706207047002062
:10D5E000704704207047032070470220704710B531
:10D5F0000446FFF7D4FF02280ED0C31EDBB2012B76
:10D6000014D82268A36850685B680A22BDE81040FD
:10D610000021184400F064BD2268A36852685B686A
:10D62000D05CA0F174035842584110BD0020FCE7C3
:10D6300038B500230446C0E900330E48C4E90203AC
:10D64000A9B10B78032B06D08BB9136858684B68C7
:10D65000C35C6E2B07D013684D6858688B682844EC
:10D660005B1BA060E36011462046FFF76CFF20467D
:10D6700038BD00BF1AFC3F0238B500250B460446F2
:10D680001146C0E90055C0E90255C0E904554BB147
:10D690001A78012A06D103F11002DB688260436127
:10D6A000FFF751FF204638BD10B54369044663B10A
:10D6B0008068013BE0601030A0602061636113B1BD
:10D6C000FFF7F2FEA060012000E0184610BD10B583
:10D6D0007D210446FFF749FF01232046237110BD39
:10D6E00008B50379012B02D0022B04D008BD2C21F0
:10D6F000FFF73BFFFAE73A21FAE710B50446FFF7D8
:10D70000EFFF20467B21FFF730FF002320462371E7
:10D7100010BD000013B504460191FFF7E1FF236837
:10D720002046DB68019A034998470123204623716C
:10D7300002B010BDB3F93F0213B504460191FFF7E3
:10D74000CFFF23682046DB68019A034998470123ED
:10D750002046237102B010BDF8FD3F022DE9F047CD
:10D760000D469046222104462F46FFF7FEFEDFF8C5
:10D77000A490A8444745BA463DD017F8016B222E25
:10D7800006D05C2E04D0304600F07AFB0028F1D1A0
:10D790002368294620469B68AAEB050298475C212E
:10D7A0002046FFF7E2FE0D2E0AD8072E1CD9A6F15F
:10D7B0000803052B18D8DFE803F00D0F1117131518
:10D7C000222E01D05C2E0FD131462046FFF7CDFE30
:10D7D0003D46CFE76221F8E77421F6E76E21F4E7D2
:10D7E0006621F2E77221F0E7236832464946204677
:10D7F000DB689847ECE7BD4205D023682946204600
:10D800009B687A1B984722212046FFF7AEFEBDE8B1
:10D81000F08700BFFBFD3F0213B50446CDE90021B0
:10D82000FFF75EFFDDE900212046FFF797FF0223A7
:10D830002046237102B010BD13B50446CDE9002186
:10D84000FFF74EFFDDE900212046FFF787FF0123A8
:10D850002046237102B010BD1B2837B5044602D9FB
:10D86000002003B030BDA0F10F03022B0BD901281B
:10D8700021D800F035F90021007CFDF7C3FE80F0CF
:10D880000100C0B2EDE7114DD5E88F1F11F0010185
:10D890000BD128460191FCF74FFC019928B10C48A7
:10D8A000FEF764F92846FCF74CFC094B1878FDF7A5
:10D8B000D3FE0028D4D1083C012C05D800F064F830
:10D8C000007CFDF721FEDAE70120CAE7F4AE07107D
:10D8D000F8AE07101B2838B504460D460AD8FF29B4
:10D8E00008D0FFF7B9FF28B129462046BDE83840E7
:10D8F000FDF71CBD38BD38B504460D46FDF724FDC7
:10D90000FF2810D0062804D84D2323FA00F0C307BF
:10D9100009D42046FFF7A0FF28B129462046BDE8DC
:10D920003840FDF71FBD38BD7047000038B51425DD
:10D9300004462A46002100F0D2FA258040250749F6
:10D9400028462581258200F08FFA04496060284628
:10D9500000F08AFAE060204638BD00BF33FE3F0287
:10D960007047704710B50446FFF7E0FF204610BD32
:10D9700010B50446FFF7DAFF204610BD10B5044687
:10D98000FFF7D4FF204610BD30B50E4D87B0D5E867
:10D990008F1F11F0010411D12846FCF7CDFB68B1AF
:10D9A00001A8FFF7DFFF214601AA0748FFF706FCA1
:10D9B0002846FCF7C6FB054800F05BFA024807B0B2
:10D9C00030BD00BF00AF07100CAF0710B1F03F0231
:10D9D00010B50D4C86B0D4E88F3FDB0711D420463C
:10D9E000FCF7AAFB68B101A8FFF7C2FF012101AA59
:10D9F0000648FFF7E3FB2046FCF7A3FB044800F0D2
:10DA000038FA024806B010BD04AF071020AF071067
:10DA1000EBF03F0210B5FFF7DBFF074B044653B1B5
:10DA2000FFF7EAFB38B1236820461B6998470028B6
:10DA300001DD00E000BF10BD0000000010B50D4C7E
:10DA400086B0D4E88F3FDB0711D42046FCF774FB87
:10DA500068B101A8FFF792FF022101AA0648FFF76B
:10DA6000ADFB2046FCF76DFB044800F002FA0248CB
:10DA700006B010BD08AF071034AF0710E9F03F0241
:10DA800010B5FFF7DBFF074B044653B1FFF7B4FBBC
:10DA900038B1236820461B699847002801DD00E063
:10DAA00000BF10BD000000007047000038B50A4BF1
:10DAB00004460360012309494361202000F0D4F9A2
:10DAC0002025606005492846A56000F0CDF9C4E92D
:10DAD0000305204638BD00BF1800010033FE3F0299
:10DAE00030B50E4D87B0D5E88F1F11F0010411D16C
:10DAF0002846FCF721FB68B16846FFF7D7FF6A4666
:10DB000021460748FFF7A8FB2846FCF71AFB054803
:10DB100000F0AFF9024807B030BD00BF4CAF0710AE
:10DB200050AF071031F23F024FF08042D2F8183266
:10DB300023F0FE6343EA0050C2F818027047000069
:10DB4000012870B54FF080444AD1D4F8A0309A0033
:10DB500045D44FF09045D5F80832022043F0805369
:10DB6000C5F80832D5F88032214E43F00303C5F8DA
:10DB70008032B047D5F880324FF4C87043F00403C8
:10DB8000C5F88032D4F8803043F00043C4F88030C8
:10DB9000B047D5F8643223F00053C5F86432D4F8A6
:10DBA000803043F0C043C4F88030236823F48023DE
:10DBB0002360D4F8843043F00103C4F88430D4F8EF
:10DBC000A0309B00FBD5D4F8803043F48073C4F8B8
:10DBD0008030D4F8803043F08003C4F8803070BDCA
:10DBE000D4F8803023F0C04323F4C073F5E700BFBE
:10DBF00049A910100023C0E90033C0E9023370477F
:10DC0000436801290BBF23F4803343F4803343601E
:10DC100043600BBF4368436843F4003323F400338D
:10DC200043607047436801290BBF23F0807343F0C2
:10DC30008073436043600BBF4368436843F00073E5
:10DC400023F000734360704738B50B6805460C46F7
:10DC500033B1023B012B03D93A211F4800F0BCFA33
:10DC60006368032B06D9063B012B03D93B211A48D5
:10DC700000F0B2FAA368012B03D93C21164800F04A
:10DC8000ABFAE368032B03D93D21134800F0A4FA53
:10DC90006B68002143F001036B606B68284623F03A
:10DCA00001036B600D4BEB610D4B98470D4B984793
:10DCB000D4E900136A681B0222F0405222F46C522D
:10DCC00043EA01331343A26843EAC223E26843EA0A
:10DCD00002736B6038BD00BF25FE3F0271021080E9
:10DCE00089F33F02ADF33F02836801290BBF43F480
:10DCF000002323F40023836083600BBFC368C368E1
:10DD000023F4002343F40023C36070472DE9F74355
:10DD10001F46DDE90A560C2358434B4B0C4653F87B
:10DD20000080D8F8049031B94FF4A77147480192A8
:10DD300000F052FA019A39460C23454F0020B847AB
:10DD4000FF2807467ED054220021424B20469847A8
:10DD50000B21216408F1100100220223012021621D
:10DD60001321C9F30139B9F1030FC4E90423A264F3
:10DD70002263E064636022706770E16244D1C4E9A9
:10DD80000620E260A3602685238DB3F5805F04D969
:10DD900040F277112D4800F01FFA22462E4B617891
:10DDA0002078656298472D4A2F465369DB0322D5B8
:10DDB000681C30D1711C30D10023C2F88430BFF30D
:10DDC0004F8F43F6E075D2F88030C3F3C900C3F338
:10DDD0004E335B01014603EA050747EAC176013984
:10DDE000C2F87462F9D2203B13F1200FF2D1BFF3D5
:10DDF0004F8FBFF36F8F207801226178184B9847BF
:10DE0000012003B0BDE8F083C4E90633E360A360FA
:10DE1000B3082385B8E7EB0607D025F01F07354484
:10DE2000013D25F01F052035EE1B3546BFF34F8F12
:10DE30000A4A3744002DA7EB0503D8DDC2F870323B
:10DE4000203DF7E70020DCE704FE3F0210FE3F0222
:10DE50003DC41010A10E1110F9BF101000ED00E02C
:10DE600091BF1010FCF753B9FCF753B908B5FDF793
:10DE700007FE002301461A46184600F03BB9000091
:10DE8000024B1844407800F097007047C8FE3F02EC
:10DE90000A44431E914200D1704710B511F8014B5E
:10DEA000914203F8014FF9D110BD884210B501EB42
:10DEB000020402D98442234607D8431EA14208D057
:10DEC00011F8012B03F8012FF8E7024401468A42BA
:10DED00000D110BD13F8014D02F8014DF7E70244DF
:10DEE0000346934200D1704703F8011BF9E7000095
:10DEF00038B5104B04461D68AB6BB3B91820FDF75D
:10DF000087FD0246A86320B90B4B42210B48FDF761
:10DF1000D3FD0B490B4BC0E900130B4B0021836071
:10DF20000B2383810120C2E90401AB6B00221C6139
:10DF30005A6138BD68A4071034FE3F024BFE3F0211
:10DF40000E33CDAB34126DE6ECDE0500C9B20346EC
:10DF500010F8012B1AB18A42F9D1184670470029EE
:10DF600018BF0023F9E710B50446FFF7EFFF18B913
:10DF70002046FCF7A7F8204410BD034611F8012BFA
:10DF800003F8012B002AF9D1704710B57AB1034686
:10DF90000139841813F8010B11F8012F904201D1B7
:10DFA000A34201D1801A10BD0028F3D1FAE7104630
:10DFB000F9E738B503460C4669B9BDE83840FFF7C4
:10DFC000C5BF431C054621461846FFF7BFFF002882
:10DFD000F7D1284638BD0025F5E70000012B2DE9D3
:10DFE000F04701D0242B06D9FDF758FD1623036016
:10DFF0000020BDE8F0870D46DFF8E0C02E4615F89A
:10E00000014B14F80C7017F00807F7D12D2C32D102
:10E010002C780127B51C002B5BD0102B09D1302C9C
:10E0200007D12C7804F0DF04582C4DD16C781023E4
:10E03000023507F100484FF0000C08F1FF38664642
:10E04000B8FBF3F903FB198AA4F1300EBEF1090FF6
:10E0500016D87446A34224DDBCF1000F1EDBB14587
:10E060001CD301D1A24519DB06FB03464FF0010C7E
:10E0700015F8014BE8E72B2C04BF2C78B51CCAE738
:10E08000A4F1410EBEF1190F01D8373CE2E7A4F12B
:10E09000610EBEF1190F04D8573CDBE74FF0FF3C8F
:10E0A000E6E7BCF1000F05DA22234646036042B9D9
:10E0B00030469EE707B17642002AF9D0BCF1000F46
:10E0C00000D0691E1160F3E73024002BB1D1082382
:10E0D000AFE7302CA5D00A23ABE700BFC9FE3F0253
:10E0E00013460A46014602480068FFF777BF00BFA3
:10E0F00068A407102DE9F843DFF8BC8006461F46E8
:10E100000D46D8F80000914600F058F8264B1C68E0
:10E1100034B9264C1C60264B13B11B68C4F88830F8
:10E1200063681F2B07DDD8F8000000F049F84FF0B6
:10E13000FF30BDE8F8835EB3D4F8880088B91D4B82
:10E1400023B9D8F8000000F03AF8F0E74FF48470F3
:10E15000FDF75EFC0028F4D00023C0E94033C4F88A
:10E16000880063680122022E40F8239002FA03F22D
:10E1700000EB8301D0F8003143EA0203C0F800311C
:10E18000C1F8807002BFD0F804311343C0F80431E5
:10E190006368D8F800005A1C0233626044F82350C8
:10E1A00000F00EF80020C4E7F0AF071064AF0710CE
:10E1B0000000000099D13F02CCA4071070477047BF
:10E1C000704700000000000001B40248844601BC12
:10E1D000604700BF95A9101001B40248844601BCF5
:10E1E000604700BF71A8101001B40248844601BC0A
:10E1F000604700BF49A910105DB83F0285B83F02D3
:10E2000089B83F020000000043616C6C206F6E20F3
:10E2100070757265207669727475616C00456E6503
:10E22000726779204C6576656C3A202564005265EA
:10E23000636F7264696E6720636F6D706C6574657F
:10E240002E005374617274696E672050726F67722A
:10E25000616D2E2E2E0050444D206465636F646501
:10E260007220696E6974206572723D2564005044A5
:10E270004D206465636F64657220737461727420ED
:10E280006572723D2564004D6963726F70686F6ED0
:10E290006520696E697469616C697A65642073755B
:10E2A000636365737366756C6C792E000000000003
:10E2B000000000000000000000000000A9B83F02BC
:10E2C00011C03F0200000000000000001DC03F021E
:10E2D00051C03F02F9E13F02A1E33F02000000000C
:10E2E000000000009FC43F02A9C43F0295C43F0242
:10E2F000B7C43F0299C43F02DFC43F02A1C43F023A
:10E30000EFC43F0201C53F022FC53F0200000000DD
:10E3100000000000D5C53F02E9C53F0295C43F0299
:10E32000B7C43F0299C43F02DFC43F02A1C43F0209
:10E33000EFC43F0201C53F022FC53F0200000000AD
:10E3400000000000FDC53F0211C63F0295C43F0218
:10E35000BFC53F02A3C53F02C3C53F02C7C53F02B9
:10E36000CBC53F02CFC53F02CDC63F020000000033
:10E370000000000099C63F02B9C63F027DC73F02B8
:10E3800039C73F02A9C53F02A1C53F026275666653
:10E39000657220746F6F20736D616C6C2C207761D7
:10E3A00073202564206E656564203434005249462C
:10E3B00046005741564500666D74200064617461E3
:10E3C000000000000000000000000000B9C83F028B
:10E3D000BBC83F020000000000000000C9C83F02A7
:10E3E000DDC83F027DC73F0239C73F02A9C53F02D2
:10E3F0000DCA3F020000000000000000D7D23F021B
:10E40000CDD23F02C3D23F02B9D23F02ADD23F02CA
:10E41000A1D23F02D9EA3F02E1EA3F0295D23F0290
:10E420008DD23F0283D23F0279D23F0209EC3F02F4
:10E4300011EB3F0219EB3F02626175640053657294
:10E4400069616C0053657269616C31004A534F4ECB
:10E4500053747265616D4C6F6748616E646C657270
:10E460000061707000253031307520005D20002C77
:10E47000200028293A2000205B00636F6465203D5E
:10E48000200025690064657461696C73203D20007B
:10E490000D0A006D0066006C6E00666E007400630D
:10E4A0006F64650064657461696C000000000000C1
:10E4B00000000000F1D53F0217D63F02D5D53F023C
:10E4C0005FEC3F020000000000000000A5DA3F0200
:10E4D000BDDA3F02F9E13F02A1E33F020000000084
:10E4E00000000000D1DA3F02E5DA3F02D9E33F0243
:10E4F000DDD53F020000000000000000EFD53F0224
:10E5000025D63F025DE13F02DFD53F02000000005B
:10E5100000000000EDD53F0233D63F020DDA3F0286
:10E5200055D63F0225592D256D2D25645425483A91
:10E53000254D3A2553257A0061736374696D650032
:10E540000000000000000000D5E63F02C5E63F02E3
:10E55000C7E63F020000000000000000BBE73F02EA
:10E5600023E83F02F9E73F02B5D43F02EBE73F0261
:10E57000BDE73F02CDE73F021DE83F02DDE73F0276
:10E58000B5E73F020000000000000000C9E83F02BC
:10E5900035E93F020DE93F02B5D43F02DDE83F0215
:10E5A000F9E83F02EBE83F0207E93F02CBE83F0210
:10E5B000CFE83F02000000000000000087E93F02B2
:10E5C000D1E93F02A9E93F0289E93F02B1E93F02EF
:10E5D000B9E93F02C1E93F02C9E93F02000000007A
:10E5E000000000007BEA3F0271EA3F0267EA3F0257
:10E5F0001DEA3F025BEA3F024FEA3F02D9EA3F02CF
:10E60000E1EA3F0243EA3F023BEA3F0231EA3F02CE
:10E6100027EA3F0209EC3F0211EB3F0219EB3F02F0
:10E620005CAE0710E4AE0710ECAE0710000000006F
:10E630000000000099EA3F02A3EA3F02ADEA3F0270
:10E64000B7EA3F02C1EA3F02CDEA3F02D9EA3F0200
:10E65000E1EA3F02E9EA3F02F5EA3F02FDEA3F0252
:10E6600007EB3F0209EC3F0211EB3F0219EB3F02BF
:10E670002575007525303478000000000008014041
:10E680000A0000000B000000415544494F5F535001
:10E690005F525847444D415F496E6974004155448B
:10E6A000494F5F53505F496E697400005245454EB3
:10E6B00054206D616C6C6F63207375636365656472
:10E6C0006564002F6D6E742F776F726B737061636A
:10E6D000652F776F726B73706163652F4743432DAE
:10E6E00031302D706970656C696E652F6A656E6B6F
:10E6F000696E732D4743432D31302D706970656C01
:10E70000696E652D34385F32303230313132345FEA
:10E71000313630363138303634312F7372632F6EE4
:10E7200065776C69622F6E65776C69622F6C6962C0
:10E73000632F7374646C69622F72616E642E630060
:10E7400000202020202020202020282828282820C1
:10E7500020202020202020202020202020202020B9
:10E760002088101010101010101010101010101021
:10E770001004040404040404040404101010101011
:10E7800010104141414141410101010101010101DB
:10E79000010101010101010101010101101010102D
:10E7A00010104242424242420202020202020202AD
:10E7B0000202020202020202020202021010101001
:10E7C0002000000000000000000000000000000029
:10E7D0000000000000000000000000000000000039
:10E7E0000000000000000000000000000000000029
:10E7F0000000000000000000000000000000000019
:10E800000000000000000000000000000000000008
:10E8100000000000000000000000000000000000F8
:10E8200000000000000000000000000000000000E8
:10E8300000000000000000000000000000000000D8
:10E8400000000000E9C33F02E1D23F0209D33F02CA
:10E85000A5D43F02E9E13F024DE53F0269E53F02F1
:08E8600085EA3F021DEC3F02B6
:10E868000000000284FC3F029CFC3F02C0FC3F0207
:10E878006CA4071000000000000000000000000069
:10E888000000000000000000000000000000000080
:10E898000000000000000000000000000000000070
:10E8A8000000000000000000000000000000000060
:10E8B8000000000000000000000000000000000050
:10E8C8000000000000000000000000000000000040
:08E8D80000000000F4AF07107E
:10E8E0000000000000000000000000000000000028
:10E8F0000000000000000000000000000000000018
:10E900000000000000000000000000000000000007
:10E9100000000000000000000000000000000000F7
:04F0E000000000002C
:10FFBE000200100000A05F08A8A05F0830B83F0242
:10FFCE0001000A00FFFFFFFFFFFF00000102030414
:10FFDE0005060708090A0B0C0D0E0F10111213144B
:0EFFEE0015161718191A1B1C1D1E1F203E0089
:04FFFC0078563412ED
:04000005085FA018D8
:00000001FF
