:02000004085F93
:10A0000000A05F08FCFF5F080000060020000501BB
:08A010000401E015000000004E
:10A018001348144908B5884205D0134A824202D031
:10A02800124B121A98471248124A0021124B121A60
:10A03800984712481249884205D0124A824202D0F3
:10A048000A4B121A984710481049884205D0104AFE
:10A05800824202D0054B121A9847014808BD00BF3A
:10A0680048A407100CEB5F08C0A407102D0D1110B1
:10A07800C0AC0710E8AF0710A10E111090B53F0251
:10A08800A8A05F0898B53F0298B53F02B0A05F0846
:0CA09800F4FF3F0219A05F080000000068
:08A0A8009CA05F08C8F93F020B
:10A0B00010F8012B11F8013B012A28BF9A42F7D072
:10A0C000D01A7047034613F8012B002AFBD1181A47
:10A0D0000138704770B503F079F80025054E064C3D
:10A0E000A41BA408AC4200D170BD56F8043B9847AD
:10A0F0000135F7E7D0FF3F02F4FF3F0200F0DEBD7D
:10A1000008B500F011FDBDE8084003F017B801F0F4
:10A11000BBBD01F0B9BD01F0C5BD01F0C3BD00007C
:10A120000C2008B5024A034901F034FCFEE700BFE9
:10A1300071CA3F02D8F93F020078B0FA80F04009B6
:10A1400070470123037070470C21054A92F83D3097
:10A150004B43D118D35C0BB9486870470020704757
:10A16000C0AD071038B50C4D0A4695F83D4028B1F2
:10A170000C2303FB0453596804F000F80C2301225C
:10A1800063431444E4B2042CEA540ABF002385F864
:10A190003D4085F83D3038BDC0AD0710094A92F802
:10A1A0003E1069B90C2092F83C3058430133DBB2C1
:10A1B000042B115402D082F83C30704782F83C10D6
:10A1C000704700BFC0AD07100C21084B93F83C202E
:10A1D0004A4399189A5C22B10022486883F83E20CD
:10A1E00070470122586B83F83E207047C0AD0710BE
:10A1F000064B93F83E200AB1986B70470C2193F8F8
:10A200003C2001FB02339868704700BFC0AD0710C7
:10A2100037B5214B04465B69D8031AD5636A228D92
:10A22000D9064FEA820208D023F01F01013B1344F4
:10A2300023F01F0320335A1A0B46BFF34F8F1648E3
:10A240001344002AA3EB020121DCBFF34F8FBFF3BD
:10A250006F8F6178114B20789847FFF79FFFFFF7CA
:10A26000B3FF0190FFF7C4FF0546019A617820789B
:10A270000B4B984761782078AA080A4B984701222F
:10A2800061782078084B03B0BDE830401847C0F82B
:10A290005C12203AD5E700BF00ED00E0A5BD10102C
:10A2A000B9C2101009C3101091BF1010B0F5FA5FB9
:10A2B000F7B51CD0B0F5FA4F14BF05250325374B71
:10A2C0000120B1FA81F498474FF04141012208463C
:10A2D000334FB847334901220846B847EB1E64099B
:10A2E000042B07D8DFE803F00506560658000725BB
:10A2F000E5E70C26304603F08DFD02232246284672
:10A30000002100F09FF8284D00212120A8470021BE
:10A310002220A847254D0C212120A8470C212220CE
:10A32000A847234B234A01255A6380229A630022BF
:10A330004FF4007020499A8783F83E200132042AA6
:10A34000C3E901101D7001F5007103F10C03F5D193
:10A3500000261A4D1A4B28469847294619481A4B89
:10A36000AC602E60984701211648184B9847012190
:10A37000174B14489847FFF727FF0446FFF738FFAD
:10A38000144ACDE9004011463046134B134CA04708
:10A3900003B0F0BD1826ADE73026ABE715F33F025A
:10A3A000390011100000084099CF1010B9CF1010DB
:10A3B000C0AD071040AD0710C0A4071014AD0710C2
:10A3C000C9F33F02000801401DF43F02BDF43F0203
:10A3D000F9F33F02C0AC0710F9B63F02E1F43F02C7
:10A3E00008B5FFF7B1FE00B908BD00210846FFF728
:10A3F000B9FEF6E7FFF7A8BEFFF7B4BE0904064AA8
:10A4000041EA002040F00100044B10601168C907C8
:10A4100001D5013BFAD1704700000140A086010040
:10A42000064A000240F01000106005481368D90683
:10A4300002D50138FAD17047180C7047000001406E
:10A44000A08601002DE9F34717464FF090421D46C4
:10A450008846D2F84433116923F0FE0349014CBF0A
:10A4600043F0540343F0D00315F010040646C2F83D
:10A47000443340EA001959D04FF421611220FFF70C
:10A48000BDFF4FF421611520FFF7B8FF1B20FFF738
:10A49000C7FF40F0070081B21B20FFF7AFFF1B2072
:10A4A000FFF7BEFF40F0100081B21B20FFF7A6FFB0
:10A4B00041F6BF711820FFF7A1FFFB20FFF7B0FFA7
:10A4C00040F0020081B2FB20FFF798FF1120FFF758
:10A4D000A7FF20F4005141F4805189B21120FFF709
:10A4E0008DFF1420FFF79CFF20F4005141F48051B0
:10A4F00089B21420FFF782FF1820FFF791FF6FEA5F
:10A50000C0406FEAD04081B21820FFF777FF1721D3
:10A510001B20FFF773FF49461720FFF76FFF8021CD
:10A52000102002B0BDE8F047FFF768BF0320FFF737
:10A5300077FF20F4406141F40061032089B2FFF706
:10A540005DFF15F0080A4AD01820FFF769FF40F0B8
:10A550003F0081B21820FFF751FF2046FFF760FF50
:10A5600000F4406040F4467141F003012046FFF7DB
:10A5700045FF40F2FC710120FFF740FF0220FFF78A
:10A580004FFF00F4E05040F4014141F0EA010220A5
:10A59000FFF734FF10210C20FFF730FF49F6FC7164
:10A5A0000120FFF72BFF0220FFF73AFF00F4E050F5
:10A5B00040F4014141F0FA010220FFF71FFF20465D
:10A5C000FFF72EFF00F4406040F4667141F0030194
:10A5D0002046FFF713FF18210C20FFF70FFF15F09F
:10A5E00005042FD00220FFF71BFF20F4C04141F4E7
:10A5F0000141022089B2FFF701FF052003F068FF47
:10A60000EA077FD50C20FFF70BFF40F0100081B266
:10A610000C20FFF7F3FE0220FFF702FF40F4C060BA
:10A6200081B20220FFF7EAFE642003F051FF03200D
:10A63000FFF7F6FE20F0F00141F4687189B20320C3
:10A64000FFF7DCFE15F00D0F02D0C82003F038FF35
:10A65000BAF1000F20D00020FFF7E2FE00F44060C6
:10A6600040F4067141F003010020FFF7C7FE40F2FD
:10A67000FC410120FFF7C2FE0220FFF7D1FE00F4EB
:10A68000E05040F4014141F0EA010220FFF7B6FE3C
:10A6900010210C20FFF7B2FE6CB10020FFF7C0FEC6
:10A6A00040F4606040F0010081B20020FFF7A6FE98
:10A6B000322003F00DFF41F6BF711820FFF79EFE18
:10A6C00046F220311120FFF799FE46F22031142086
:10A6D000FFF794FE64B31220FFF7A2FE0446152094
:10A6E000FFF79EFE24F4C76420F4C76AA4B21FFAE1
:10A6F0008AFA092E0ED8DFE806F0BBC00DB60D0DA4
:10A700000D0DBBC00320FFF78BFE00F47F4040F42B
:10A71000547194E744F004014AF0040A1220FFF750
:10A720006DFE15205146FFF769FE322003F0C8FE8A
:10A7300017211B20FFF762FE49461720FFF75EFE38
:10A74000FB20FFF76DFE20F0060141F0080189B201
:10A75000FB20FFF753FEFD20FFF762FE20F006010D
:10A7600041F0080189B2FD20FFF748FE2720FFF7DE
:10A7700057FE20F4807081B20FB941F48071272018
:10A78000FFF73CFEFA20FFF74BFE20F40070400577
:10A79000400D40F48051FA200191FFF72FFEFC207C
:10A7A0000199FFF72BFEAB0740D51120FFF738FECC
:10A7B000344C204040F4A04141F0190189B21120ED
:10A7C000FFF71CFE1220FFF72BFE40F0040081B2C1
:10A7D0001220FFF713FE1420FFF722FE204040F462
:10A7E000A04141F0180189B21420FFF707FE15209F
:10A7F000FFF716FE40F0040081B21520FFF7FEFDC2
:10A800001720FFF70DFE20F4E06141F4807189B25A
:10A810001720FFF7F3FD1820FFF702FE6FEAC04094
:10A820006FEAD04081B21820FFF7E8FD26F0080655
:10A83000012E13D11720FFF7F3FD20F4F04141F46E
:10A84000006189B21720FFF7D9FD1B20FFF7E8FD53
:10A8500020F00C0081B21B20FFF7D0FD47EA081161
:10A8600041F080015CE644F00C014AF00C0A55E727
:10A8700044F014014AF0140A50E744F01C014AF075
:10A880001C0A4BE7FEDFFFFF704730B585B004467A
:10A89000089860B1406850B1856845B1CDE9024182
:10A8A000CDE90023C4686A4601AB02A9A04705B000
:10A8B00030BD0000054B197881F00101197011B904
:10A8C000072003F08EB90121FAE700BF44AE07105C
:10A8D00030B51368006885B001938368D1E90045FD
:10A8E000CDE902450BB903F037FCC36801AA02A900
:10A8F000984705B030BD012A02D1016000207047A1
:10A90000022A04BF0B680360F8E703681268D1E904
:10A9100000011847012A08BF0160002070470000AD
:10A9200010B50446094B036001F086FD214601F095
:10A93000BDFF02F057FD02F049FD2046044B40F8F0
:10A94000043B01F04FFE204610BD00BF58FA3F0205
:10A9500040FA3F0210B50446FFF7E2FF20462421EB
:10A96000FFF7DBFB204610BD10B58368044613B12A
:10A97000032201469847204610BD10B5044638B161
:10A98000FFF7F2FF2046BDE810401021FFF7C5BBDE
:10A9900010BD0EB44FF0200C002300B58CB00DAAF2
:10A9A00052F8041BCDE904C3CDE9001203920168FB
:10A9B00004AA1E2000F0FCFF0CB05DF804EB03B00D
:10A9C00070470EB44FF0200C002300B58CB00DAAD8
:10A9D00052F8041BCDE904C3CDE9001203920168CB
:10A9E00004AA322000F0E4FF0CB05DF804EB03B0E1
:10A9F0007047000010B5074C8221204601F00DFA87
:10AA00000A2002F063FB2046BDE810406FF0810190
:10AA100001F003BA34AE0710002210B54C0821F043
:10AA200001010144884207D030F9023B002BB8BF36
:10AA30005B4212FA83F2F5E7B2FBF4F406492246D0
:10AA40000648FFF7A6FF40F2EE239C4203D9BDE87B
:10AA50001040FFF7CFBF10BDEDF93F0274AE0710F5
:10AA600008B50B4611681868FFF7D6FF0022014BA6
:10AA70001A7008BD0CAE071038B5002383608B68D0
:10AA800004460D462BB102229847EB68E360AB68A1
:10AA9000A360204638BD012A37B5044604D10B68AF
:10AAA0000360002003B030BD022A0CD0032AF8D185
:10AAB0000468002CF5D02046FFF756FF10212046F1
:10AAC000FFF72BFBEDE7096810200191FFF71FFB53
:10AAD000054610B10199FFF7CFFF2560E1E770B59A
:10AAE0001426D0E90053044606FB0356AE4204D0B8
:10AAF000284601F00DFA1435F8E7206801F0D2F885
:10AB0000204670BD13B56C460B460246D0E90001E5
:10AB100084E8030093E8030082E8030094E803005C
:10AB200083E8030002B010BD10B588B000F030FB20
:10AB300000F080FB1F4B1A781F4B002A37D01A7881
:10AB4000002A35D101222C201A70FFF7E0FA0446C2
:10AB500008B100F0ABFC194B02220393184B694675
:10AB60000293002304A80693FFF7D4FE039B04F18D
:10AB700014010793029B04A80693FFF7C3FF069BEB
:10AB8000E269E361079B0692226A04A823620792A6
:10AB9000FFF7EAFE6846FFF7E7FE3223236100F085
:10ABA000F7FA214608B0BDE8104000F053BB1A7018
:10ABB00008B010BD44AE07100CAE071049BF3F02ED
:10ABC000FDBD3F022DE9F0414FF0000894B01A9905
:10ABD000054604A817461E46FFF74EFF04A908A81D
:10ABE000FFF74AFF08A90CA8FFF746FF1020CDF891
:10ABF0004880FFF78CFA044668B10146C0F8088027
:10AC00000CA8FFF77FFF0E9BA268A3600E920F9B1C
:10AC1000E268E3600F92244B00221393234B4FF022
:10AC2000000812930023C5E90023214B1020C5F82A
:10AC300008801094CDE90138CDF80C80FFF767FA51
:10AC40000446D8B1129BC0F8088033B1022210A983
:10AC50009847139BE360129BA360164B38460393FF
:10AC60003146154A01AB029400F0E8FEB0B120462F
:10AC7000FFF77AFE10212046FFF74FFA10A8FFF7E2
:10AC800073FE0CA8FFF770FE08A8FFF76DFE04A87E
:10AC9000FFF76AFE284614B0BDE8F081029BC5E9C3
:10ACA0000076AB60EAE700BFB9BD3F027FBF3F025D
:10ACB00002000C0063BE3F0273BD3F0230B5B423F7
:10ACC00000248BB04FF408720121CDE900432848DD
:10ACD0004FF4166301F0DEF8FFF78CFE254923469A
:10ACE00049682246062000F0B3FF00F0A3FF224B84
:10ACF00006AD0693214B4FF480520993204B02A8D6
:10AD0000089300950023FFF75DFF2846FFF72CFE10
:10AD10000121072002F054FF0121062002F050FF1C
:10AD20002146072002F05DFF2146062002F059FF70
:10AD300000F02EFA01210422C0E904124FF47A52E5
:10AD40000368C260DB689847024618B10D490E4897
:10AD5000FFF737FE00F01CFA03685B69984702466C
:10AD600018B10A490848FFF72CFE0BB030BD00BFF0
:10AD700034AE0710DCAE07109DBD3F02F3BD3F02AD
:10AD8000DFBD3F0206FA3F0274AE07101EFA3F0213
:10AD90008842F8B504460D46164616D9904215D29B
:10ADA000A2F11406751AA1F114072C44B7421CD065
:10ADB0002CB13146204601F014F9337C237430461F
:10ADC00001F0A6F8143E143CF0E70ED0B5420CD0CA
:10ADD0002CB12946204601F004F92B7C2374284627
:10ADE00001F096F814351434F0E7F8BD00232DE98E
:10ADF000F041C0E9003383604F6804469F420E462D
:10AE000024DD4FF0140808FB07F000F03DFF054675
:10AE1000E0B1D4E9001208FB0212FFF7B9FF206885
:10AE200000F040FF2560A760D6E9007308FB0378B7
:10AE3000B84509D03946284601F0EDF83B7C143579
:10AE400005F8043C1437F3E7736863602046BDE8F7
:10AE5000F081000070B500248CB00021012000F0CA
:10AE6000FBFD234B234AC3E900449A60022000F013
:10AE7000C9FDCDE90044029402F0B4FA1E4C054627
:10AE80002646694603A8FFF7B1FF03A906A8FFF706
:10AE9000ADFF1A4B06A946F8043B09A8FFF7A6FF29
:10AEA00009AA1E21304601F0E3FD09A8FFF717FEAD
:10AEB00006A8FFF714FE124B2562236003A8FFF7D4
:10AEC0000EFE104B236002F08DFA4FF4165102F083
:10AED00079FA01F0B1FA214601F0A2FC6846FFF7C9
:10AEE000FEFD09480CB0BDE8704000F0BFBF00BFD8
:10AEF00000AE07100000FFFF10AE071040FA3F023F
:10AF000058FC3F0258FA3F0234AE07100120704748
:10AF10006FF077007047704700230377184670473B
:10AF200010B504462021FFF7F8F8204610BD08B5FB
:10AF3000C368B3F57A5F08D0B3F5FA4F05D0B3F51F
:10AF4000FA5F1CBF4FF47A53C360017AC068FFF701
:10AF5000ADF9002008BD10B50446FFF741FA012302
:10AF60000020237710BD08B5007F20B1FFF742FA1B
:10AF7000003818BF012008BD37B5057F04461DB94C
:10AF80000025284603B030BD0191FFF733FA014692
:10AF90000028F5D02046019A00F06EF900210846FD
:10AFA000FFF72AFAEDE7F7B5077F06460D461FB90A
:10AFB0000027384603B0F0BDFFF71CFA044600280E
:10AFC000F6D002460146304600F056F94FF4807341
:10AFD0000193AB6800940BB903F0BEF869462846AC
:10AFE000EB6801AA984700210846FFF705FAE0E759
:10AFF0004FF0010C0421064AC0E904C14FF48071EE
:10B000004260002281610349027201600277704749
:10B010000B000C0070FA3F0270476FF0770070472A
:10B02000436833B1D0E90230834234BF00200120AD
:10B03000704718467047FFF77ABFFFF78CBFFFF7DE
:10B040006BBFFFF790BFFFF797BF000010B5044636
:10B05000024B0360FFF75FFF204610BDA0FA3F02DE
:10B0600010B50446FFF7F2FF20462021FFF755F800
:10B07000204610BD10B50446024B0360FFF7E6FF03
:10B08000204610BDD0FA3F0210B50446FFF7F2FF8C
:10B0900020462421FFF741F8204610BD012A02D1A5
:10B0A000016000207047022A04BF0B680360F8E7C4
:10B0B00073B50446036815689A6A09685543D3E96D
:10B0C00002022E1896425B6888BF151A2A46184459
:10B0D00003F054F8226893682B4493602068D0E909
:10B0E00002239A4212D3C36983B103685B6998470C
:10B0F0002068C3684268CDE90023C3690BB903F037
:10B100002BF8036A694601AA1430984702B070BD53
:10B1100010B5064B04460360406808B1FEF7FBFF1C
:10B1200004F11400FFF720FC204610BD00FB3F0295
:10B1300010B50446FFF7ECFF20462C21FEF7EDFF8B
:10B14000204610BD002330B585B002938B680546BC
:10B150000C4633B1022268469847E3680393A3681C
:10B16000029369462846FFF71EFF04466846FFF72C
:10B17000FBFB204605B030BD10B50446FFF738FF95
:10B18000024B204623600023236210BDD0FA3F0209
:10B1900038B5064D2B683BB92420FEF7B8FF0446AE
:10B1A00008B1FFF7E9FF2C60286838BD48AE0710EA
:10B1B0001FB543680446BBB1D0E902239A4213D2BB
:10B1C000FFF7E6FF0368DB69984768B1FFF7E0FF28
:10B1D000064A03680392064A69465B6A0094029233
:10B1E00098476846FFF7C0FB04B010BD99C53F0201
:10B1F00085C53F0238B50446FFF7CAFF0369656A93
:10B20000002B0CBF01230223A560A362FFF7C0FF40
:10B21000A26A2369C06853434FF47A7290FBF2F03C
:10B2200000FB0350E060FEF774FF6060003818BF59
:10B23000012038BD006A10B10368DB681847704709
:10B2400010B50446006A10B103685B689847002394
:10B25000236210BD70B50C460546FFF7F1FF2C6266
:10B2600023682046BDE870409B6818470369002B9F
:10B270000CBF012002207047F8B5074603688669B5
:10B280009B680C46154601EB460698473B69C3B9D7
:10B2900001226FF07F017B6940009A4012B2B442F4
:10B2A00036D2B4F90030044493FBF2F31BB27F2B87
:10B2B000A8BF7F238B42B8BF0B46803B05F8013BFC
:10B2C000EDE7012B17D17A6948F264071149C2F101
:10B2D00008024000B4421BD2B4F900300444934049
:10B2E0008B4206DBB3F5004FC8BF3B4625F8023B57
:10B2F000F0E7084BFAE7AC4201D1012808D0400042
:10B30000B44205D2B4F90030044425F8023BF7E713
:10B31000F8BD00BF0180FFFF044A02600022C0E9BF
:10B320000122C0E90322C2614262704700FB3F0272
:10B33000704710B504461021FEF7EFFE204610BD01
:10B3400010B50446024B0360FFF7E2FE204610BD35
:10B3500068FB3F0210B50446FFF7F2FF20462C21A0
:10B36000FEF7DBFE204610BD006800BA7047436858
:10B3700010B5140E5C544368140C0B445C704368A5
:10B38000140A0B449C7043681944CA7010BD000035
:10B390002DE9F8431546826804462B2A0E46984646
:10B3A000DDF8209006D825482549FFF7F2FA00205D
:10B3B000BDE8F8832348FFF7D7FF00210246204667
:10B3C000FFF7D5FF636809F124025A601E48FFF7B2
:10B3D000CBFF082102462046FFF7C9FF1B48FFF7B5
:10B3E000C3FF0C2102462046FFF7C1FF10220127B0
:10B3F000636817481A61636824219F826368DE824C
:10B4000063689D6105FB08F57543636816FB08F6E4
:10B41000ED08DD616368F6101E846368A3F822807E
:10B42000FFF7A2FF02462046FFF7A1FF63683846F8
:10B43000C3F828902C23E360BAE700BF74AE07106E
:10B4400018FB3F0239FB3F023EFB3F0243FB3F023A
:10B4500048FB3F0210B5C36888B006930023124929
:10B4600042680446CDE904120793FFF791FE037A80
:10B47000002B14BF022101210391FFF789FEC2684E
:10B480000292FFF785FEFFF7F1FEDDE90221E36896
:10B49000646AC0001B1B009300F0F80304A8FFF7C8
:10B4A00077FF08B010BD00BF58FB3F0210B504463F
:10B4B000FFF732FF024B204623602C23636210BD4E
:10B4C00068FB3F0209B504480068044B03441B684D
:10B4D0009B68029309BD000048A4071050000000BB
:10B4E00009B504480068044B03441B68DB680293F9
:10B4F00009BD000048A407105000000009B5044829
:10B500000068044B03441B685B68029309BD00009C
:10B5100048A407101400000009B504480068044B53
:10B5200003441B689B68029309BD000048A40710F0
:10B530001400000009B504480068044B03441B686C
:10B54000DB68029309BD000048A407101400000046
:10B5500009B504480068044B03441B681B69029347
:10B5600009BD000048A407101400000009B50448F4
:10B570000068044B03441B685B68029309BD00002C
:10B5800048A407100000000009B504480068044BF7
:10B5900003441B68DB68029309BD000048A4071040
:10B5A0000000000009B504480068044B03441B6810
:10B5B0005B69029309BD000048A407100000000069
:10B5C00009B504480068044B03441B685B6C029394
:10B5D00009BD000048A407103000000009B5044868
:10B5E0000068044B03441B689B6C029309BD000078
:10B5F00048A407103000000009B504480068044B57
:10B6000003441B68DB6C029309BD000048A40710CB
:10B610003000000009B504480068044B03441B686F
:10B620005B6D029309BD000048A4071030000000C4
:10B6300009B504480068044B03441B685B69029326
:10B6400009BD000048A407104C00000009B50448DB
:10B650000068044B03441B689B68029309BD00000B
:10B6600048A407102400000009B504480068044BF2
:10B6700003441B68DB68029309BD000048A407105F
:10B680002400000009B504480068044B03441B680B
:10B690001B69029309BD000048A4071024000000A4
:10B6A00009B504480068044B03441B685B690293B6
:10B6B00009BD000048A407102400000009B5044893
:10B6C0000068044B03441B689B69029309BD00009A
:10B6D00048A407102400000009B504480068044B82
:10B6E00003441B68DB69029309BD000048A40710EE
:10B6F0002400000009B504480068044B03441B689B
:10B700001B6A029309BD000048A407102400000032
:10B7100009B504480068044B03441B689B6A029304
:10B7200009BD000048A407102400000009B5044822
:10B730000068044B03441B68DB6A029309BD0000E8
:10B7400048A407102400000009B504480068044B11
:10B7500003441B681B6C029309BD000048A407103A
:10B760002400000009B504480068044B03441B682A
:10B770001B6A029309BD000048A4071010000000D6
:10B7800009B504480068044B03441B685B6A0293D4
:10B7900009BD000048A407101000000009B50448C6
:10B7A0000068044B03441B689B6A029309BD0000B8
:10B7B00048A407101000000009B504480068044BB5
:10B7C00003441B68DB6A029309BD000048A407100C
:10B7D0001000000009B504480068044B03441B68CE
:10B7E0001B6B029309BD000048A407101000000065
:10B7F00009B504480068044B03441B685B6B029363
:10B8000009BD000048A407101000000009B5044855
:10B810000068044B03441B681B6C029309BD0000C5
:10B8200048A407101000000009B504480068044B44
:10B8300003441B68DB69029309BD000048A407109C
:10B840001800000009B504480068044B03441B6855
:10B850001B6A029309BD000048A4071018000000ED
:10B8600009B504480068044B03441B681B69029334
:10B8700009BD000048A407100C00000009B50448E9
:10B880000068044B03441B685B69029309BD000018
:10B8900048A407100C00000009B504480068044BD8
:10B8A00003441B689B69029309BD000048A407106C
:10B8B0000C00000009B504480068044B03441B68F1
:10B8C0001B68029309BD000048A407103400000063
:10B8D00009B504480068044B03441B685B68029385
:10B8E00009BD000048A407103400000009B5044851
:10B8F0000068044B03441B689B68029309BD000069
:10B9000048A407103400000009B504480068044B3F
:10B9100003441B681B69029309BD000048A407107B
:10B920003400000009B504480068044B03441B6858
:10B930005B69029309BD000048A4071034000000B1
:10B9400009B504480068044B03441B689B690293D3
:10B9500009BD000048A407103400000009B50448E0
:10B960000068044B03441B68DB69029309BD0000B7
:10B9700048A407103400000009B504480068044BCF
:10B9800003441B681B6A029309BD000048A407100A
:10B990003400000009B504480068044B03441B68E8
:10B9A0005B6B029309BD000048A40710480000002B
:10B9B00009B504480068044B03441B685B6D02939F
:10B9C00009BD000048A407104800000009B504485C
:10B9D0000068044B03441B68DB6E029309BD000042
:10B9E00048A407104800000009B504480068044B4B
:10B9F00003441B681B6F029309BD000048A4071095
:10BA00004800000009B504480068044B03441B6863
:10BA10005B68029309BD000048A4071008000000FD
:10BA200009B504480068044B03441B685B69029332
:10BA300009BD000048A407100800000009B504482B
:10BA40000068044B03441B681B6A029309BD000095
:10BA500048A407100800000009B504480068044B1A
:10BA600003441B68DB6A029309BD000048A4071069
:10BA70000800000009B504480068044B03441B6833
:10BA8000D3F88830029309BD48A4071008000000CD
:10BA900009B504480068044B03441B68D3F894308C
:10BAA000029309BD48A407100800000009B5044826
:10BAB0000068044B03441B685B68029309BD0000E7
:10BAC00048A407102800000009B504480068044B8A
:10BAD00003441B689B68029309BD000048A407103B
:10BAE0002800000009B504480068044B03441B68A3
:10BAF000DB68029309BD000048A40710280000007D
:10BB000009B504480068044B03441B681B69029391
:10BB100009BD000048A407102800000009B504482A
:10BB20000068044B03441B685B69029309BD000075
:10BB300048A407102800000009B504480068044B19
:10BB400003441B689B69029309BD000048A40710C9
:10BB50002800000009B504480068044B03441B6832
:10BB6000DB69029309BD000048A40710280000000B
:10BB700009B504480068044B03441B681B6A029320
:10BB800009BD000048A407102800000009B50448BA
:10BB90000068044B03441B681B6B029309BD000043
:10BBA00048A407102800000009B504480068044BA9
:10BBB00003441B685B6B029309BD000048A4071097
:10BBC0002800000009B504480068044B03441B68C2
:10BBD0001B6C029309BD000048A407102800000058
:10BBE00009B504480068044B03441B685B6C02936E
:10BBF00009BD000048A407102800000009B504484A
:10BC00000068044B03441B685B6D029309BD000090
:10BC100048A407102800000009B504480068044B38
:10BC200003441B689B6D029309BD000048A40710E4
:10BC30002800000009B504480068044B03441B6851
:10BC4000DB68029309BD000048A407102C00000027
:10BC500009B504480068044B03441B689B6B0293BE
:10BC600009BD000048A407102C00000009B50448D5
:10BC70000068044B03441B68DB6B029309BD0000A2
:10BC800048A407102C00000009B504480068044BC4
:10BC900003441B681B68029309BD000048A40710F9
:10BCA0000400000009B504480068044B03441B6805
:10BCB0005B68029309BD000048A40710040000005F
:10BCC00009B504480068044B03441B689B68029351
:10BCD00009BD000048A407100400000009B504488D
:10BCE0000068044B03441B685B6A029309BD0000B3
:10BCF00048A407100400000009B504480068044B7C
:10BD000003441B68DB6A029309BD000048A40710C6
:10BD10000400000009B504480068044B03441B6894
:10BD2000DB6B029309BD000048A40710040000006B
:10BD300009B504480068044B03441B681B6C02935C
:10BD400009BD000048A407100400000009B504481C
:10BD50000068044B03441B685B6C029309BD000040
:10BD600048A4071004000000002240681146FFF7B5
:10BD7000FFBE002240681146FFF716BF0022406850
:10BD8000FFF704BF0022406881F00101FFF7E2BE27
:10BD9000002340681A461946FFF7CEBE00234068CC
:10BDA0001A461946FFF7BABE002240681146FFF74F
:10BDB000A7BE002240681146FFF786BE002202217E
:10BDC0004068FFF78FBE002340681A46FFF76EBE3B
:10BDD0000322024B5A60024A1A6070474CAE0710A9
:10BDE00088FB3F0210B5044608462170FFF71CFD92
:10BDF00000232046636010BDB0F90020531C0BD017
:10BE0000438880888B4203D88842034628BF0B466C
:10BE1000194690B2FFF740BD704713B50446084677
:10BE2000B4F90610B4F90820884210DB9042A8BF8C
:10BE30001046A3880093638801F03CF9E16801444F
:10BE4000204689B202B0BDE81040FFF7D5BF0846D2
:10BE5000EFE700004FF41663034AC0E90023B42360
:10BE600003810023C3607047FFFF200208B5FFF77E
:10BE7000F1FF08BD10B50446B0F90000431C07D01F
:10BE800080B2FFF7FBFC2046FFF7E4FF012010BD66
:10BE90000020FCE72DE9F0410D460446022128462A
:10BEA00090461F46FFF72AFB022803D000263046A3
:10BEB000BDE8F081284601F045FE06460028F5D091
:10BEC000B4F90030013302D02046FFF7D3FFBDF9AB
:10BED00018302846E380BDF91C302580A4F8028084
:10BEE000A7802381FFF7BCFCE1E7000002220020CD
:10BEF000044B1A60044B054AC3E900009A60FFF73F
:10BF000081BD00BF60AE071054AE07100000FFFFF8
:10BF100010B504460068FFF7C5FE204610BD10B5F9
:10BF20000446006808B1FFF7BDFE0023C4E90133F1
:10BF3000236010BD38B504460D4600680131FFF797
:10BF4000BFFE10B1C4E90005012038BD10B503687B
:10BF5000044623B143688B4201D3012010BD204623
:10BF6000FFF7E8FF0028F9D0A368002BF5D122687D
:10BF70001370F2E737B50D46114601920446FFF7FC
:10BF8000E5FF019A28B92046FFF7C9FF204603B014
:10BF900030BD2946A260206802F0F0F80021226836
:10BFA000A368D154F2E738B5054600680C4670B175
:10BFB0006A688B689A4208D3096831B102F053F974
:10BFC000A368AB600023A36038BDFFF76BFE236856
:10BFD0002B6063686B60A368AB600023C4E9003327
:10BFE000F1E7002310B50446C0E900338360037312
:10BFF000FFF7D9FF204610BD884210B5044605D092
:10C000000B682BB18A681946FFF7B4FF204610BDB4
:10C01000FFF785FFFAE7002310B50446C0E90033B7
:10C0200083600373FFF7E8FF204610BD10B5436837
:10C030000446013B436063B903689B689847A36863
:10C04000013BA3602BB923682046BDE81040DB68A4
:10C05000184710BD70B50446D0E9005305EB031630
:10C06000AE4204D02846FFF753FF1035F8E72068AA
:10C07000FFF718FE204670BD10B50446006808B1F1
:10C08000FFF7D4FF204610BD002302480360FFF7EE
:10C0900097BA00BF64AE0710F8B506460D460024F7
:10C0A0008F18BD420CD0336830469B6815F8011BD1
:10C0B0009847031E01DB1C44F3E7002C08BF1C4615
:10C0C0002046F8BD13B50446084659B10191FDF765
:10C0D000F9FF0246204623680199DB6802B0BDE8FB
:10C0E0001040184702B010BD03689B681847002332
:10C0F000012A98BF0A2230B58BB08DF8243009ACE4
:10C100000D46B1FBF2F101FB125303F0FF03092BC3
:10C1100094BF30333733DBB2AA4204F8013DEFD984
:10C120002146FFF7CFFF0BB030BD80680368DB68A6
:10C1300018477047084611B10B685B68184770478D
:10C14000704770477047704738B504460D46006821
:10C150002E2102F07EF82368C31A2B6023B10378E6
:10C1600003B1013023682060184638BD10B504467D
:10C170000C21FDF7D2FF204610BD10B50446042166
:10C18000FDF7CBFF204610BD10B504460421FDF796
:10C19000C4FF204610BDFFF72FBA08B5FDF788FF92
:10C1A000B0FA80F0400908BD704710B50C4601F0A8
:10C1B00019F9844205D101F015F9BDE8104001F0EC
:10C1C00005B901F057FD844205D101F053FDBDE8EA
:10C1D000104001F084B92CB123682046BDE810401E
:10C1E0005B68184710BD0B6803604B68436013B170
:10C1F0005A6801325A60704713B5044608460191E7
:10C20000FDF760FF02462046019902B0BDE81040EC
:10C2100001F088BC13B5044608460191FDF752FFB2
:10C220000246204623680199DB6802B0BDE8104051
:10C23000184707B503688DF807100122DB680DF178
:10C240000701984703B05DF804FB0A6810B5026067
:10C250004A6842600022C0E9022202618C688A605A
:10C260008460CC68CA60C4600C690A61046110BD56
:10C270002DE9F74F4FF0140AD0E9008417464546E0
:10C280000AFB04F40093174BA4105C43002C21DD3F
:10C2900066100AFB06F005EB0009B9F804B03A464F
:10C2A0005F4528BF5A462858019101F0E4FF002855
:10C2B0004FF0010301990BD15F4503D1009A137030
:10C2C0003446E3E7FCD9A61B09F11405013EF7E764
:10C2D000F9DBF5E7A5EB08050248AD10684303B0AC
:10C2E000BDE8F08FCDCCCCCC7FB50369057E019144
:10C2F00003B3F9B1002600F10C04039603A901A8C9
:10C30000FFF722FF0146A8B10DF10B032046039A67
:10C310008DF80B60FFF7ACFF9DF80B3053B123682D
:10C32000142404FB0034B4F906300834002BA8BFF1
:10C33000DDB2E3E7284604B070BD0EB4F0B58CB0B2
:10C3400000AF07F1440555F8042B04462B46202185
:10C3500007F110007A60FD60FFF7C0FC1F287A68C3
:10C360001AD900F1080323F007036E46ADEB030D65
:10C37000411C2B466846FD60FFF7B0FC021E04DD41
:10C38000236869462046DB689847B5463037BD4686
:10C39000BDE8F04003B070470028F7D0236802469C
:10C3A000DB68204607F110019847EFE710B5084C0D
:10C3B000D4E88F3FDB0709D42046FDF7BDFE28B146
:10C3C0002046FDF7BEFE034801F0C9FE024810BD3D
:10C3D0006CAE071029D63F024CA4071010B5084CCC
:10C3E000D4E88F3FDB0709D42046FDF7A5FE28B12E
:10C3F0002046FDF7A6FE034801F0B1FE024810BD3D
:10C4000070AE071091D63F0250A4071038B5002532
:10C410000446C0E90055C0E904558560856140F8CF
:10C42000245FFFF7CDF8FFF7C1FFE061FFF7D6FF0C
:10C4300025732062204638BD10B50A4CD4E88F3FE2
:10C44000DB070CD42046FDF777FE40B10648FFF726
:10C45000DDFF2046FDF775FE044801F080FE02482E
:10C4600010BD00BF68AE071078AE071071DE3F0246
:10C470000023024A02490348FFF7B6BA59DC3F02DB
:10C48000E5DB3F0265DB3F0200231A4619461846EA
:10C49000FFF7AABA37B504468D686846FFF7A3FED2
:10C4A0006A462946204601F05DFA01A8FFF7E4FD3F
:10C4B000204603B030BD37B50446CD686846FFF767
:10C4C00092FE6A462946204601F028FA01A8FFF7A5
:10C4D000D3FD204603B030BD37B504460D6968462C
:10C4E000FFF781FE6A462946204601F0C0F901A8FF
:10C4F000FFF7C2FD204603B030BD000070B58AB022
:10C500000D46014604A8FFF7C5FF144E04A801F02C
:10C5100041FAE8B1684604A9FFF7CDFF3146029819
:10C52000FFF73BFE044610B12C1E18BF012401A8E2
:10C53000FFF7A2FD002CE9D0684604A9FFF7CCFF65
:10C54000684601F0CAF9286001A8FFF795FDDDE70C
:10C5500005A8FFF791FD0AB070BD00BFC4FB3F0204
:10C5600037B50C46134920461546FDF7A1FD50B9D5
:10C5700000F038FF4FF4165100F024FF03B0BDE87F
:10C58000304000F02FBF20460B49FDF791FD78B9F0
:10C590004FF4165301A928460193FFF7AFFF01F0AE
:10C5A00069FB019900F098FF01F064FB03B030BD16
:10C5B0000020FBE7C9FB3F02D0FB3F0270B5142609
:10C5C000D0E90053044606FB0356AE4205D005F100
:10C5D0000800FFF7F3FF1435F7E72068FFF762FB69
:10C5E000204670BD10B504460C30FFF7E7FF20462B
:10C5F000FFF730FD204610BD10B50446034B40F850
:10C60000043BFFF7EFFF204610BD00BF40FA3F029A
:10C6100010B50446FFF7F0FF20462421FDF77DFD0D
:10C62000204610BD10B50446024B0360FFF7E4FF3F
:10C63000204610BD70FC3F0210B50446FFF7F2FF24
:10C6400020462421FDF769FD204610BD0022C0E9E7
:10C650000022826010B50C680A6004604C684A6071
:10C6600044608C688A60846010BD10B5044603681D
:10C670001868FEF7CFFF204610BD00002DE9F04FEF
:10C6800087B003931C4B80465B688946C3F308035D
:10C6900016466BB9FFF7D0FE044600F12403406A4A
:10C6A0000593FFF778FD237B2BB105A8FFF7DDFF8E
:10C6B00007B0BDE8F08F01235FFA89F92373D4E94D
:10C6C000005305EB830AAA4512D055F8047B314686
:10C6D000381DFFF709FE8145F5D3039A3B680092A8
:10C6E000D3F808B04A46334641463846D847EAE7C9
:10C6F00000232373D9E700BF00ED00E02DE9F74FD9
:10C700009B461A4B80465B688946C3F3080316466E
:10C710006BB9FFF791FE044600F12403406A0193D0
:10C72000FFF739FD237B2BB101A8FFF79EFF03B074
:10C73000BDE8F08F0123F6B22373D4E9005305EB73
:10C74000830A55450ED055F8047B5946381DFFF72E
:10C75000CBFD8642F5D33B684A4641463846DB6806
:10C760009847EEE700232373DEE700BF00ED00E00B
:10C770002DE9F341164B05465B680F46C3F30803EA
:10C780001BBBFFF759FE044600F12403406A0193E6
:10C79000FFF701FDD4E90063462406EB8308B045AA
:10C7A00009D101A8FFF761FFA542B4BF0020012015
:10C7B00002B0BDE8F08156F8040B39460430FFF7AB
:10C7C00093FD8442A8BF0446E9E70020F0E700BFDC
:10C7D00000ED00E0F8B5D0E901539D4204460E4655
:10C7E0000DDB6F1C002F006804DDB900FFF768FA4D
:10C7F00018B9F8BDFFF756FA00202060A760276837
:10C80000626807EB85019200A2EB8502081D01F02A
:10C81000C2FC47F825606368012001336360E8E7E4
:10C8200037B5044600F12403406A01930D46FFF733
:10C83000B2FCD4E9003203EB8202934219460AD0DB
:10C8400009680433A942F8D101A8FFF70EFF0025BB
:10C85000284603B030BD29462046FFF7BBFF0546FA
:10C860000028F1D06368012B01D1FFF701FE01A878
:10C87000FFF7FBFEECE70B4670B50446D0E900027B
:10C8800000EB820282420FD001461D6851F8046B12
:10C89000AE4207D1521A01F07EFC01206368013BD1
:10C8A000636070BD0846EDE70020FAE71FB5044657
:10C8B00000F12403406A01910393FFF76CFC2046CA
:10C8C00001A9FFF7D8FF18B163680BB9FFF7DCFDCA
:10C8D00003A8FFF7CAFE04B010BD182370B50446C4
:10C8E000D0E9045603FB0656AE4215D0204605F1AA
:10C8F0001001FFF7C0FF63680BB9FFF7C5FDE069E2
:10C9000029690368DB689847696919B1206A036877
:10C91000DB6898471835E7E71826D4E9045306FB87
:10C920000356AE4204D02846FFF7F2FA1835F8E76E
:10C930000023636170BD73B50446FFF7A5FD04F1E4
:10C940002403606A0193FFF726FC2046FFF7C5FF2A
:10C9500001A8FFF78AFE606A08B1FEF73FFED4E93E
:10C960000453182606FB0356AE4204D02846FFF7B0
:10C97000CFFA1835F8E72069FFF794F92068FFF738
:10C9800091F9204602B070BD0148FFF7D4BF00BF47
:10C9900078AE07108842F8B504460D46164615D9FC
:10C9A000904214D2A2F11406751AA1F114072C4476
:10C9B000B7421AD01CB131462046FFF746FC06F1BB
:10C9C0000800FFF7FBFD143E143CF1E70DD0B54223
:10C9D0000BD01CB129462046FFF737FC05F10800B3
:10C9E000FFF7ECFD14351434F1E7F8BD8842F8B5D3
:10C9F00004460D46164614D9904213D2A2F11006F1
:10CA0000751AA1F110072C44B74218D01CB1314659
:10CA10002046FFF7E6FA3046FFF77AFA103E103C60
:10CA2000F2E70CD0B5420AD01CB129462046FFF7E8
:10CA3000D8FA2846FFF76CFA10351034F2E7F8BD43
:10CA400070B50E1E054611DD3001FFF71DF90446D5
:10CA500058B1D5E9001201EB0212FFF7C7FF2868B1
:10CA6000FFF720F901202C60AE6070BD0024F6E7CE
:10CA70002DE9F04F90460023462295B00391D8F857
:10CA8000041004469942C0E90033C0E90233C0E90A
:10CA90000433CDE9083302760A9323DCD8E9005742
:10CAA000142303FB0757AF423BD029460BA8FFF7DF
:10CAB00098FA0BA90FA8099EFFF793FADDE909136D
:10CAC00099421BDA089B099A03EB0616314603EBE1
:10CAD000021206F11000FFF789FFEEB9099B01333E
:10CAE000099311E008A8FFF7ABFF0028D6D108A8EA
:10CAF000FFF7B0FA204615B0BDE8F08F013108A865
:10CB0000FFF79EFF0028DDD10FA8FFF701FA0BA861
:10CB1000FFF7FEF91435C6E730460FA9FFF761FAB3
:10CB2000DCE700264FF01409CDE90B660D96DDE930
:10CB300008239E427CDA3301D35806930BB90136A1
:10CB4000F5E70023079309FB06F30BAD029307A952
:10CB500006A8FFF7F9FA82460028F0D04FF000034C
:10CB600001468DF817302846079A0DF11703FFF795
:10CB70007FFB9DF817700190002F4AD1BDF81C3043
:10CB8000CDE91177ADF840304FF6FF73CDF83CA0FA
:10CB9000ADF842301397D5E90132934217DB03F128
:10CBA000010ABAF1000F30DD09FB0AF0FFF76CF85B
:10CBB000834660B3D5E9001209FB0212FFF7EAFED3
:10CBC0002868FFF76FF8C5F800B0C5F808A02B6813
:10CBD000019A09FB023A6A68514609FB02320AF1DE
:10CBE0001400FFF7D7FEBAF1000F03D050460FA98B
:10CBF000FFF72BFB6B6801336B6011A8FFF7DEFCBE
:10CC00003FB10BA8FFF7DAFC71E7BB46D8E7012775
:10CC1000F3E7019B2D6809FB0355069B1B782BB995
:10CC2000D8F80030029A13441B7CEB8008358EE75D
:10CC30002168226062686360A36809920A9A0A9375
:10CC4000E368A2600B9A0B932369E2600C9A0C9341
:10CC5000636922610D9A0D93039B089162612376AB
:10CC6000CFE70000F0B504462646174687B00D46CC
:10CC700068461946FEF7BAF80B4B694646F8043B7E
:10CC800003A8FEF7B3F8394603AA3046FFF7F0FED3
:10CC900003A8FDF724FF6846FDF721FF2046034B5C
:10CCA0002562236007B0F0BD40FA3F0258FC3F0206
:10CCB000F0B50F4685B038461C4916461D460A9CFD
:10CCC000FDF7F6F9C0B9A4B1294601A8FFF7BEFCEB
:10CCD0002420174901F03CFA054630B101AB324639
:10CCE0002146FFF7BFFF134B2B6001A8FDF7F7FEAE
:10CCF0002C46204605B0F0BD38460F49FDF7D8F95F
:10CD000090B9002CF5D0294601A8FFF79FFC2420FC
:10CD1000074901F01DFA05460028E6D032462146B3
:10CD200001ABFFF79FFFE0E70024E2E7D8FB3F02FB
:10CD300037FE3F0270FC3F02DCFB3F02014B024A20
:10CD40001A60704774AE0710EDFB3F022DE9F04703
:10CD5000089DD0F8209004460E461746984600F0ED
:10CD600041FB81454DD02B79190704D520466A69CE
:10CD70005449FFF7E2FAB8F1000F0DD05B212046CD
:10CD8000FFF757FA41462046FFF744FA236802228C
:10CD90002046DB684C4998472B79DA0724D5D5F82B
:10CDA00008802F21404601F07AFA08B100F101080D
:10CDB00041462046FFF72EFA2B799B0708D53A21EA
:10CDC0002046FFF736FA2046EA684049FFF7B5FAF1
:10CDD0002A79236812F0040F20464FF00202DB6824
:10CDE00014BF3B493B4998472B7958071DD5296902
:10CDF0000B461A4613F8010B60B1202808D11946DA
:10CE0000F7E7354800F031FC0028ACD0BDE8F087EA
:10CE10002828EED12368521A2046DB6898472368F9
:10CE200004222046DB682D49984700213846FEF74A
:10CE3000CDFD01462046FFF7EDF92368022220468A
:10CE4000DB68244998471EB131462046FFF7E2F9D6
:10CE50002B7913F0300F2CD023682149DB68022294
:10CE6000204698472B79D9060AD523680722204601
:10CE70001C49DB6898472046AA691B49FFF75DFA01
:10CE80002B799A0611D5DB0605D5236802222046A8
:10CE9000DB680F4998472368204614490A22DB685B
:10CEA00098472046E969FFF7B5F95D212046FFF76D
:10CEB000C0F923682046BDE8F0470222DB680C4930
:10CEC000184700BFF1FB3F02F8FB3F0203FA3F02A5
:10CED000FBFB3F0200FC3F02DCAE0710FEFB3F0203
:10CEE00003FC3F0206FC3F020EFC3F0211FC3F0226
:10CEF0001CFC3F022DE9F0410446076A0D46164628
:10CF000000F070FA874207D0206A3246036829464B
:10CF1000BDE8F041DB681847034800F0A6FB002895
:10CF2000F2D0BDE8F08100BFDCAE07102DE9F04380
:10CF300085B0D0F8209005460F4690461E460C9CC2
:10CF400000F050FA814505D1494800F08EFB0028D9
:10CF500040F08A804FF000092B6A464A01A80192EE
:10CF600003938DF8089000F03EFD49464046FEF7D9
:10CF70002DFD80464049012201A800F0C3FD414635
:10CF8000FFF73AF93FB13D49012201A800F0BAFD8F
:10CF90003946FFF731F93EB13949012201A800F0C5
:10CFA000B1FD3146FFF728F92379DF070ED5A668D2
:10CFB0002F21304601F073F900B1461C314901229E
:10CFC00001A800F09FFD3146FFF716F923799E076F
:10CFD00007D52D49022201A800F094FDE16800F078
:10CFE0000FFD2379580714D5266933461F4613F8D9
:10CFF000012B2AB1202A01D11E46F7E7282AF5D1B4
:10D000000222224901A800F07DFD3146BA1B00F042
:10D0100089FD2379190707D51D49012201A800F0D0
:10D0200071FD616900F0FEFC2379DA0608D504225F
:10D0300018490DEB020000F065FDA16900F0E0FC6D
:10D0400023799B0607D51449062201A800F05AFD52
:10D05000E169FFF7D1F801A800F0AFFC286A0222CD
:10D0600003680E49DB68984705B0BDE8F08300BF50
:10D07000DCAE071040FC3F02CEFB3F021FFC3F022C
:10D08000CAFE3F0221FC3F0223FC3F0226FC3F0276
:10D0900029FC3F022BFC3F0230FC3F021CFC3F02FC
:10D0A000024B1A68024B1A60704700BF54A4071065
:10D0B000A0AE07108A4210B507D0441A0298C01AD1
:10D0C0004443501A94FBF0F0184410BD0021FEF7C1
:10D0D000A7BC00000022014B9A607047A4AE071065
:10D0E000014B1860704700BF58A4071008B50F4BDC
:10D0F00043B100F077F903681B699847002801DD08
:10D1000000E000BF0A4B43B100F0B4FD03681B69A7
:10D110009847002801DD00E000BF064B0BB100F08E
:10D12000EFFD054B0BB100F021FE08BD0000000033
:10D1300000000000000000000000000008B5FFF73C
:10D14000D5FFFEF72FFA014B186008BD38AF071066
:10D150000548064A08B5121A054901F00FF8054BB3
:10D16000054A1A6008BD00BF00B4071004B40710D8
:10D1700084F35F0800B407101E1C279A002307B52C
:10D180001A466FF077010093FEF782FC03B05DF85A
:10D1900004FB000007B543880A2B08D0502B0BD1A5
:10D1A000094B1B684BB103B05DF804EB1847FFF760
:10D1B000E5FF03B05DF804FB00231A466FF077012A
:10D1C0000093FEF765FCF4E7B8AE0710002110B538
:10D1D0001148FEF7BBFD114B1A68114B9A420CBF68
:10D1E000012200220F4B1A7001D0FFF7B1FFFEF7AA
:10D1F000BDF9044600F0F2FF0B4B13B1204600E0EE
:10D2000000BF00210848FEF731FDBDE810400021B5
:10D210000648FEF72FBC00BFC9E53F0200B4071067
:10D220001E1C279AB4AE0710000000007DE63F02E6
:10D23000704710B504461821FCF76FFF204610BD5B
:10D24000F0B5037D0E46062B4FF000048DB000F1C3
:10D25000040712D000F1080515F8011D0A22304616
:10D26000FEF745FFAF42044419D0002CF4D02E2124
:10D270003046FEF739FF0444EEE72F236A4639466D
:10D280000A208DF80040FEF7D3F96846FCF71AFF34
:10D290003368024669463046DB68984704462046B4
:10D2A0000DB0F0BD10B50446044B1122002140F82A
:10D2B000043B00F08AFF204610BD00BFD4FC3F02B3
:10D2C0000346074A10B543F8042B01F1100251F848
:10D2D000044B914243F8044BF9D10A781A7010BDFF
:10D2E000D4FC3F0210B59DF8084044EA032343EA0A
:10D2F0000242042342EA01614160037510BD00004F
:10D3000007B5064B0360CB7800938B784A78097891
:10D31000FFF7E8FF03B05DF804FB00BFD4FC3F0259
:10D32000417470477047704708B50021007CFEF7D4
:10D3300007FB40EAE07008BD08B50121007CFEF75C
:10D34000FFFA40EAE07008BD08B5007CFEF7EAFA93
:10D3500020EAE07008BD08B5007CFEF7D5FA20EAA7
:10D36000E07008BD13B50446007C0191FEF7DAFABF
:10D370000028019901DC607C20B1207CFEF7EEFAE8
:10D3800020EAE07002B010BD007CFEF7F5BA10B5DF
:10D3900004461421FCF7C1FE204610BD10B54FF421
:10D3A0007A73044608460021C4E90113044B207433
:10D3B0002360012311466374FEF77CFA204610BDFA
:10D3C000E8FC3F020022007CFEF782BA007CFEF7F8
:10D3D0008DBA10B504461422002100F0F6FE204656
:10D3E00010BD000010B588B003A8FFF7F2FF0C4C89
:10D3F000D4E88F1F11F001010FD120460191FCF7F5
:10D400009BFE019948B103AA0648FFF7C7FF2046D3
:10D41000FCF797FE044800F0A2FE024808B010BDD9
:10D42000BCAE0710C0AE07100DE83F027047417454
:10D43000704708B5007CFEF76BF920EAE07008BD84
:10D4400008B5007CFEF71EF920EAE07008BD08B5BB
:10D45000007CFEF733F940EAE07008BD08B5007CB7
:10D46000FEF71EF940EAE07008BD007CFEF734B913
:10D4700037B5457C04462DB1207C03B0BDE8304073
:10D48000FEF7F2B8007C0191FEF742F900280199FD
:10D49000F2DC284603B030BD10B504461421FCF779
:10D4A0003CFE204610BD000010B54FF47A730446D0
:10D4B000084611460022C4E90123044B207423606E
:10D4C00001236374FEF740F9204610BD18FD3F02AA
:10D4D0000023007CFEF72AB90022FFF7F9BF007C89
:10D4E000FEF7B4B8007CFEF705B97047F8B50646FC
:10D4F00015460C468F18BC4206D0336830469B68F0
:10D5000014F8011B9847F6E72846F8BD0022007C76
:10D51000FEF728B90021007CFEF732B90021007C1B
:10D52000FEF73CB90021007CFEF746B90021007CE3
:10D53000FEF750B910B504461421FCF7EEFD204665
:10D5400010BD000038B5044615464FF47A7300222A
:10D55000C4E90123094B0846217423602946FEF7DC
:10D5600055F9BF3008D16B69DB0705D56868FEF750
:10D5700099FBE868FEF796FB204638BD48FD3F0260
:10D58000002240681146FEF7BBBA002240681146EF
:10D59000FEF7EEBA002240681146FEF705BB0022F6
:10D5A0004068FEF7F3BA0022406881F00101FEF7FF
:10D5B000D1BA002340681A461946FEF7BDBA0023C7
:10D5C00040681A461946FEF7A9BA0022406811467B
:10D5D000FEF77ABA002202214068FEF783BA0023E0
:10D5E00040681A46FEF762BA0422024B5A60024AA9
:10D5F0001A607047D4AE071070FD3F0200234068E8
:10D600001A46FEF753BA002202214068FEF76ABAB2
:10D61000002240681146FEF757BA002240681146C2
:10D62000FEF76EBA002340681A461946FEF776BA2E
:10D63000002340681A461946FEF77EBA002140686A
:10D64000FEF7C0BA00214068FEF7CABA002240685F
:10D6500081F00101FEF77EBA00224068FEF796BA1B
:10D66000002240681146FEF79FBA0022406811462A
:10D67000FEF77EBA00214068FEF7CEBA2DE9F043EE
:10D6800095B014460D460746FFF70CFE00211C22FC
:10D690000DA8009100F099FD402320460C93002135
:10D6A0006B460CAAFDF71CFF044600284BD102462E
:10D6B00001216868FEF724FA022180462246686844
:10D6C000FEF71EFA21468146009E002E3BD000291F
:10D6D00039D17368022B03D00A2B11D0F669F4E715
:10D6E000B8F1000FFAD0716906A804313C1D07ADEE
:10D6F000FFF706FE0FCD0FC42B6841462370EDE700
:10D70000B9F1000FEAD0102201A8746900F05DFDA4
:10D71000062301AD8DF8143004F1080318342A46AD
:10D7200018685968083303C2A3421546F7D101A906
:10D7300006A83C1D07ADFFF7C3FD0FCD0FC42B6836
:10D7400049462370CAE70098FDF7BCFE384615B07D
:10D75000BDE8F083033802289ABF024B53F820003B
:10D7600001487047ACFD3F02DCAE071008B500224F
:10D770004068FEF743FABDE80840FFF7EBBF000042
:10D78000024B034A1A6000225A607047DCAE071051
:10D79000C0FD3F02012200F1100313F8101C1846CF
:10D7A000012908D153F8041C02EB4102013A03F1AC
:10D7B0001003F2D17047022904BF53F8041C521819
:10D7C000F4E70EB4F0B588B0102100AF07F13405CE
:10D7D00055F8042B04462B4678187A60FD60FEF756
:10D7E0007DFA0F287A681AD900F1080323F007039D
:10D7F0006E46ADEB030D411C2B466846FD60FEF7FF
:10D800006DFA021E04DD2368694620469B6898472E
:10D81000B5462037BD46BDE8F04003B0704700284C
:10D82000F7D0236802469B68204607F1100198470D
:10D83000EFE738B50B68044603604D6843689D42C6
:10D8400008D015B16B6801336B60606808B1FEF7F2
:10D85000EDFB656038BD07B503688DF80710012240
:10D860009B680DF10701984703B05DF804FB0B4678
:10D870001146002210B50446C0E9002283600BB9AE
:10D88000204610BDFFF7D5FFFAE78368EBB11A78A1
:10D89000032A1AD8DFE802F00417021B052070479C
:10D8A00002685B685268D05C2D2812D0A0F130036A
:10D8B000092B0ED974280ED066280CD0A0F16E0367
:10D8C0005842584170470620704700207047042096
:10D8D0007047032070470220704710B50446FFF7D9
:10D8E000D4FF02280ED0C31EDBB2012B14D822684D
:10D8F000A36850685B680A22BDE810400021184404
:10D9000000F064BD2268A36852685B68D05CA0F137
:10D9100074035842584110BD0020FCE738B500237D
:10D920000446C0E900330E48C4E90203A9B10B78EC
:10D93000032B06D08BB9136858684B68C35C6E2BF9
:10D9400007D013684D6858688B6828445B1BA0603B
:10D95000E36011462046FFF76CFF204638BD00BF4C
:10D960001EFC3F0238B500250B4604461146C0E9AF
:10D970000055C0E90255C0E904554BB11A78012A97
:10D9800006D103F11002DB6882604361FFF751FFAB
:10D99000204638BD10B54369044663B18068013B39
:10D9A000E0601030A0602061636113B1FFF7F2FE08
:10D9B000A060012000E0184610BD10B57D2104468E
:10D9C000FFF749FF01232046237110BD08B50379F5
:10D9D000012B02D0022B04D008BD2C21FFF73BFF06
:10D9E000FAE73A21FAE710B50446FFF7EFFF2046C1
:10D9F0007B21FFF730FF00232046237110BD00007C
:10DA000013B504460191FFF7E1FF23682046DB6868
:10DA1000019A0349984701232046237102B010BDA3
:10DA200003FA3F0213B504460191FFF7CFFF2368C5
:10DA30002046DB68019A0349984701232046237159
:10DA400002B010BDFCFD3F022DE9F0470D469046A7
:10DA5000222104462F46FFF7FEFEDFF8A490A844DB
:10DA60004745BA463DD017F8016B222E06D05C2EF2
:10DA700004D0304600F07AFB0028F1D12368294613
:10DA800020469B68AAEB050298475C212046FFF7D9
:10DA9000E2FE0D2E0AD8072E1CD9A6F10803052B8D
:10DAA00018D8DFE803F00D0F11171315222E01D03F
:10DAB0005C2E0FD131462046FFF7CDFE3D46CFE725
:10DAC0006221F8E77421F6E76E21F4E76621F2E7B8
:10DAD0007221F0E72368324649462046DB689847C2
:10DAE000ECE7BD4205D02368294620469B687A1B97
:10DAF000984722212046FFF7AEFEBDE8F08700BF21
:10DB0000FFFD3F0213B50446CDE90021FFF75EFF9C
:10DB1000DDE900212046FFF797FF0223204623710D
:10DB200002B010BD13B50446CDE90021FFF74EFF4A
:10DB3000DDE900212046FFF787FF012320462371FE
:10DB400002B010BD1B2837B5044602D9002003B02F
:10DB500030BDA0F10F03022B0BD9012821D800F012
:10DB600035F90021007CFDF743FE80F00100C0B2D2
:10DB7000EDE7114DD5E88F1F11F001010BD12846BB
:10DB80000191FCF7D9FA019928B10C48FEF72AF95E
:10DB90002846FCF7D6FA094B1878FDF753FE002803
:10DBA000D4D1083C012C05D800F064F8007CFDF7C6
:10DBB000A1FDDAE70120CAE7E4AE0710E8AE0710DE
:10DBC0001B2838B504460D460AD8FF2908D0FFF7B0
:10DBD000B9FF28B129462046BDE83840FDF79CBC76
:10DBE00038BD38B504460D46FDF7A4FCFF2810D01B
:10DBF000062804D84D2323FA00F0C30709D4204691
:10DC0000FFF7A0FF28B129462046BDE83840FDF7C0
:10DC10009FBC38BD7047000038B5142504462A461D
:10DC2000002100F0D2FA25804025074928462581A9
:10DC3000258200F08FFA04496060284600F08AFAD5
:10DC4000E060204638BD00BF37FE3F027047704796
:10DC500010B50446FFF7E0FF204610BD10B504469E
:10DC6000FFF7DAFF204610BD10B50446FFF7D4FFDA
:10DC7000204610BD30B50E4D87B0D5E88F1F11F08E
:10DC8000010411D12846FCF757FA68B101A8FFF743
:10DC9000DFFF214601AA0748FFF706FC2846FCF7EC
:10DCA00050FA054800F05BFA024807B030BD00BFEB
:10DCB000F0AE0710FCAE0710FDF03F0210B50D4CA2
:10DCC00086B0D4E88F3FDB0711D42046FCF734FA46
:10DCD00068B101A8FFF7C2FF012101AA0648FFF7BA
:10DCE000E3FB2046FCF72DFA044800F038FA02481E
:10DCF00006B010BDF4AE071010AF071037F13F02A9
:10DD000010B5FFF7DBFF074B044653B1FFF7EAFB03
:10DD100038B1236820461B699847002801DD00E0E0
:10DD200000BF10BD0000000010B50D4C86B0D4E857
:10DD30008F3FDB0711D42046FCF7FEF968B101A83C
:10DD4000FFF792FF022101AA0648FFF7ADFB20462C
:10DD5000FCF7F7F9044800F002FA024806B010BDDB
:10DD6000F8AE071024AF071035F13F0210B5FFF7EA
:10DD7000DBFF074B044653B1FFF7B4FB38B1236810
:10DD800020461B699847002801DD00E000BF10BD58
:10DD9000000000007047000038B50A4B04460360DD
:10DDA000012309494361202000F0D4F92025606057
:10DDB00005492846A56000F0CDF9C4E903052046D1
:10DDC00038BD00BF1800010037FE3F0230B50E4DD0
:10DDD00087B0D5E88F1F11F0010411D12846FCF758
:10DDE000ABF968B16846FFF7D7FF6A462146074896
:10DDF000FFF7A8FB2846FCF7A4F9054800F0AFF9A7
:10DE0000024807B030BD00BF3CAF071040AF07105D
:10DE10007DF23F024FF08042D2F8183223F0FE63C9
:10DE200043EA0050C2F8180270470000012870B59C
:10DE30004FF080444AD1D4F8A0309A0045D44FF036
:10DE40009045D5F80832022043F08053C5F80832D7
:10DE5000D5F88032214E43F00303C5F88032B04735
:10DE6000D5F880324FF4C87043F00403C5F880320F
:10DE7000D4F8803043F00043C4F88030B047D5F880
:10DE8000643223F00053C5F86432D4F8803043F094
:10DE9000C043C4F88030236823F480232360D4F87F
:10DEA000843043F00103C4F88430D4F8A0309B00E0
:10DEB000FBD5D4F8803043F48073C4F88030D4F8B4
:10DEC000803043F08003C4F8803070BDD4F88030D7
:10DED00023F0C04323F4C073F5E700BF49A9101035
:10DEE0000023C0E90033C0E90233704743680129C9
:10DEF0000BBF23F4803343F48033436043600BBF94
:10DF00004368436843F4003323F4003343607047AD
:10DF1000436801290BBF23F0807343F08073436093
:10DF200043600BBF4368436843F0007323F0007302
:10DF30004360704738B50B6805460C4633B1023B69
:10DF4000012B03D93A211F4800F0B2FA6368032B72
:10DF500006D9063B012B03D93B211A4800F0A8FA49
:10DF6000A368012B03D93C21164800F0A1FAE3680D
:10DF7000032B03D93D21134800F09AFA6B68002166
:10DF800043F001036B606B68284623F001036B606C
:10DF90000D4BEB610D4B98470D4B9847D4E900139F
:10DFA0006A681B0222F0405222F46C5243EA0133A9
:10DFB0001343A26843EAC223E26843EA02736B6038
:10DFC00038BD00BF29FE3F0271021080D5F33F0229
:10DFD000F9F33F02836801290BBF43F4002323F4C4
:10DFE0000023836083600BBFC368C36823F40023EE
:10DFF00043F40023C36070472DE9F7431F46DDE972
:10E000000A560C2358434B4B0C4653F80080D8F863
:10E01000049031B94FF4A7714748019200F048FAD3
:10E02000019A39460C23454F0020B847FF28074680
:10E030007ED054220021424B204698470B21216478
:10E0400008F1100100220223012021621321C9F3EB
:10E050000139B9F1030FC4E90423A2642263E06427
:10E06000636022706770E16244D1C4E90620E26017
:10E07000A3602685238DB3F5805F04D940F2771124
:10E080002D4800F015FA22462E4B61782078656203
:10E0900098472D4A2F465369DB0322D5681C30D19F
:10E0A000711C30D10023C2F88430BFF34F8F43F688
:10E0B000E075D2F88030C3F3C900C3F34E335B017F
:10E0C000014603EA050747EAC1760139C2F87462DE
:10E0D000F9D2203B13F1200FF2D1BFF34F8FBFF3E2
:10E0E0006F8F207801226178184B9847012003B088
:10E0F000BDE8F083C4E90633E360A360B308238579
:10E10000B8E7EB0607D025F01F073544013D25F0A1
:10E110001F052035EE1B3546BFF34F8F0A4A3744A3
:10E12000002DA7EB0503D8DDC2F87032203DF7E7DC
:10E130000020DCE708FE3F0214FE3F023DC4101041
:10E14000A10E1110F9BF101000ED00E091BF1010EA
:10E15000FBF7DDBFFBF7DDBF08B5FDF7CDFD002305
:10E1600001461A46184600F03BB90000024B18441D
:10E17000407800F097007047CCFE3F020A44431EEF
:10E18000914200D1704710B511F8014B914203F84C
:10E19000014FF9D110BD884210B501EB020402D93C
:10E1A0008442234607D8431EA14208D011F8012B10
:10E1B00003F8012FF8E7024401468A4200D110BD5E
:10E1C00013F8014D02F8014DF7E70244034693426C
:10E1D00000D1704703F8011BF9E7000038B5104B78
:10E1E00004461D68AB6BB3B91820FDF74DFD024620
:10E1F000A86320B90B4B42210B48FDF799FD0B4951
:10E200000B4BC0E900130B4B002183600B23838170
:10E210000120C2E90401AB6B00221C615A6138BDC8
:10E2200058A4071038FE3F024FFE3F020E33CDAB1D
:10E2300034126DE6ECDE0500C9B2034610F8012B7E
:10E240001AB18A42F9D118467047002918BF002335
:10E25000F9E710B50446FFF7EFFF18B92046FBF7C2
:10E2600031FF204410BD034611F8012B03F8012BA8
:10E27000002AF9D1704710B57AB1034601398418E4
:10E2800013F8010B11F8012F904201D1A34201D1E3
:10E29000801A10BD0028F3D1FAE71046F9E738B527
:10E2A00003460C4669B9BDE83840FFF7C5BF431CBB
:10E2B000054621461846FFF7BFFF0028F7D128463C
:10E2C00038BD0025F5E70000012B2DE9F04701D00E
:10E2D000242B06D9FDF71EFD162303600020BDE8A0
:10E2E000F0870D46DFF8E0C02E4615F8014B14F814
:10E2F0000C7017F00807F7D12D2C32D12C7801279C
:10E30000B51C002B5BD0102B09D1302C07D12C78F9
:10E3100004F0DF04582C4DD16C781023023507F13E
:10E3200000484FF0000C08F1FF386646B8FBF3F9DF
:10E3300003FB198AA4F1300EBEF1090F16D87446FA
:10E34000A34224DDBCF1000F1EDBB1451CD301D17B
:10E35000A24519DB06FB03464FF0010C15F8014BF3
:10E36000E8E72B2C04BF2C78B51CCAE7A4F1410EBA
:10E37000BEF1190F01D8373CE2E7A4F1610EBEF1FE
:10E38000190F04D8573CDBE74FF0FF3CE6E7BCF140
:10E39000000F05DA22234646036042B930469EE765
:10E3A00007B17642002AF9D0BCF1000F00D0691EF7
:10E3B0001160F3E73024002BB1D10823AFE7302CF4
:10E3C000A5D00A23ABE700BFCDFE3F0213460A46A5
:10E3D000014602480068FFF777BF00BF58A4071046
:10E3E0002DE9F843DFF8BC8006461F460D46D8F8F5
:10E3F0000000914600F058F8264B1C6834B9264CB2
:10E400001C60264B13B11B68C4F8883063681F2B4F
:10E4100007DDD8F8000000F049F84FF0FF30BDE804
:10E42000F8835EB3D4F8880088B91D4B23B9D8F8B7
:10E43000000000F03AF8F0E74FF48470FDF724FC98
:10E440000028F4D00023C0E94033C4F88800636892
:10E450000122022E40F8239002FA03F200EB83011E
:10E46000D0F8003143EA0203C0F80031C1F88070EF
:10E4700002BFD0F804311343C0F804316368D8F800
:10E4800000005A1C0233626044F8235000F00EF87A
:10E490000020C4E7E0AF071054AF071000000000F1
:10E4A00071D13F02BCA4071070477047704700004D
:10E4B00001B40248844601BC604700BF71A8101037
:10E4C00001B40248844601BC604700BF95A9101002
:10E4D00001B40248844601BC604700BF49A910103E
:10E4E000BDB53F02E5B53F02E9B53F0200000000BF
:10E4F00043616C6C206F6E20707572652076697256
:10E500007475616C004176657261676520456E6562
:10E51000726779204C6576656C3A2025640050441A
:10E520004D206465636F64657220696E697420654F
:10E5300072723D25640050444D206465636F6465CC
:10E5400072207374617274206572723D25640000DC
:10E5500000000000000000000000000000000000BB
:10E5600009B63F0271BD3F0200000000000000003C
:10E5700009BE3F023DBE3F0235E23F02DDE33F02FE
:10E580000000000000000000FFC33F0209C43F027A
:10E59000F5C33F0217C43F02F9C33F023FC43F0225
:10E5A00001C43F024FC43F0261C43F028FC43F0217
:10E5B000000000000000000035C53F0249C53F02D1
:10E5C000F5C33F0217C43F02F9C33F023FC43F02F5
:10E5D00001C43F024FC43F0261C43F028FC43F02E7
:10E5E00000000000000000005DC53F0271C53F0251
:10E5F000F5C33F021FC53F0203C53F0223C53F02CB
:10E6000027C53F022BC53F022FC53F022DC63F0243
:10E610000000000000000000F9C53F0219C63F02DB
:10E62000DDC63F0299C63F0209C53F0201C53F0250
:10E6300062756666657220746F6F20736D616C6CB5
:10E640002C20776173202564206E65656420343446
:10E650000052494646005741564500666D742000F9
:10E660006461746100000000000000000000000010
:10E6700019C83F021BC83F02000000000000000054
:10E6800029C83F023DC83F02DDC63F0299C63F028E
:10E6900009C53F023DC93F02000000000000000024
:10E6A000AFD23F02A5D23F029BD23F0291D23F029E
:10E6B00085D23F0279D23F0225EB3F022DEB3F028C
:10E6C0006DD23F0265D23F025BD23F0251D23F0280
:10E6D00055EC3F025DEB3F0265EB3F026261756402
:10E6E0000053657269616C0053657269616C310039
:10E6F0004A534F4E53747265616D4C6F6748616E3B
:10E70000646C6572006170700025303130752000D6
:10E710005D20002C200028293A2000205B00636F38
:10E720006465203D200025690064657461696C732F
:10E73000203D20000D0A006D0066006C6E00666EC4
:10E74000007400636F64650064657461696C000047
:10E7500000000000000000002FD63F0255D63F0207
:10E7600013D63F02ABEC3F020000000000000000A7
:10E77000E1DA3F02F9DA3F0235E23F02DDE33F0230
:10E7800000000000000000000DDB3F0221DB3F0223
:10E7900015E43F021BD63F0200000000000000000D
:10E7A0002DD63F0263D63F0299E13F021DD63F02BC
:10E7B00000000000000000002BD63F0271D63F028F
:10E7C00049DA3F0293D63F0225592D256D2D256448
:10E7D0005425483A254D3A2553257A0061736374D0
:10E7E000696D6500000000000000000029E73F029D
:10E7F00019E73F021BE73F02000000000000000095
:10E800000FE83F0277E83F024DE83F0281D53F0223
:10E810003FE83F0211E83F0221E83F0271E83F0272
:10E8200031E83F0209E83F0200000000000000005C
:10E8300015E93F0281E93F0259E93F0281D53F02D4
:10E8400029E93F0245E93F0237E93F0253E93F0228
:10E8500017E93F021BE93F02000000000000000032
:10E86000D3E93F021DEA3F02F5E93F02D5E93F0245
:10E87000FDE93F0205EA3F020DEA3F0215EA3F02C9
:10E880000000000000000000C7EA3F02BDEA3F02AE
:10E89000B3EA3F0269EA3F02A7EA3F029BEA3F026E
:10E8A00025EB3F022DEB3F028FEA3F0287EA3F0252
:10E8B0007DEA3F0273EA3F0255EC3F025DEB3F0207
:10E8C00065EB3F024CAE0710D4AE0710DCAE07106C
:10E8D0000000000000000000E5EA3F02EFEA3F020E
:10E8E000F9EA3F0203EB3F020DEB3F0219EB3F0257
:10E8F00025EB3F022DEB3F0235EB3F0241EB3F02A0
:10E9000049EB3F0253EB3F0255EC3F025DEB3F0208
:10E9100065EB3F0225750075253034780000000056
:10E92000000801400A0000000B0000004155444966
:10E930004F5F53505F525847444D415F496E697471
:10E9400000415544494F5F53505F496E6974000060
:10E950005245454E54206D616C6C6F632073756336
:10E96000636565646564002F6D6E742F776F726BDD
:10E9700073706163652F776F726B73706163652F5E
:10E980004743432D31302D706970656C696E652F7A
:10E990006A656E6B696E732D4743432D31302D7060
:10E9A0006970656C696E652D34385F323032303194
:10E9B0003132345F313630363138303634312F73BE
:10E9C00072632F6E65776C69622F6E65776C696212
:10E9D0002F6C6962632F7374646C69622F72616E4D
:10E9E000642E6300002020202020202020202828C2
:10E9F00028282820202020202020202020202020FF
:10EA0000202020202088101010101010101010103E
:10EA1000101010101004040404040404040404106E
:10EA200010101010101041414141414101010101FC
:10EA300001010101010101010101010101010101C6
:10EA400010101010101042424242424202020202D2
:10EA50000202020202020202020202020202020296
:10EA60001010101020000000000000000000000046
:10EA70000000000000000000000000000000000096
:10EA80000000000000000000000000000000000086
:10EA90000000000000000000000000000000000076
:10EAA0000000000000000000000000000000000066
:10EAB0000000000000000000000000000000000056
:10EAC0000000000000000000000000000000000046
:10EAD0000000000000000000000000000000000036
:10EAE00000000000000000003DC33F02B9D23F0219
:10EAF000D5D33F0271D53F0225E23F0289E53F02AF
:0CEB0000BDE53F02D1EA3F0269EC3F0294
:10EB0C000000000288FC3F02A0FC3F02C4FC3F0254
:10EB1C005CA40710000000000000000000000000D2
:10EB2C0000000000000000000000000000000000D9
:10EB3C0000000000000000000000000000000000C9
:10EB4C0000000000000000000000000000000000B9
:10EB5C0000000000000000000000000000000000A9
:10EB6C000000000000000000000000000000000099
:08EB7C0000000000E4AF0710E7
:10EB84000000000000000000000000000000000081
:10EB94000000000000000000000000000000000071
:10EBA4000000000000000000000000000000000061
:10EBB4000000000000000000000000000000000051
:04F384000000000085
:10FFBE000200100000A05F08A8A05F0890B53F02E5
:10FFCE0001000A00FFFFFFFFFFFF00000102030414
:10FFDE0005060708090A0B0C0D0E0F10111213144B
:0EFFEE0015161718191A1B1C1D1E1F203E0089
:04FFFC0078563412ED
:04000005085FA018D8
:00000001FF
